:020000040800F2
:1000000030200020DD010008D52D00082D24000837
:10001000D12D000877080008813300080000000097
:100020000000000000000000000000004501000882
:100030007B0800080000000089010008252E000848
:10004000F7010008F7010008F7010008F7010008B0
:10005000F7010008F7010008F7010008F7010008A0
:10006000F7010008F7010008F7010008F701000890
:10007000F7010008F7010008F7010008F701000880
:10008000F7010008F7010008F7010008F701000870
:10009000F7010008F7010008F7010008F701000860
:1000A000F7010008F7010008F7010008F701000850
:1000B000F7010008F7010008F7010008F701000840
:1000C000F7010008F7010008F7010008F701000830
:1000D000F70100086133000871330008F7010008D8
:1000E000F7010008F7010008F7010008F701000810
:1000F000F7010008F7010008F7010008F701000800
:10010000F7010008F7010008F7010008F7010008EF
:10011000F7010008F7010008C12E0008D12E0008E1
:10012000F7010008F7010008F7010008F7010008CF
:10013000DFF80CD000F06CFB00480047D13C000811
:1001400030200020224B19680868B0E8F00F80F3D7
:100150000988BFF36F8F4FF0000080F311884EF0D5
:100160000D0E70470000000006480068006880F32C
:10017000088862B661B6BFF34F8FBFF36F8F00DFA1
:1001800000BF00BF08ED00E0EFF30980BFF36F8F01
:100190000F4B1A6820E9F00F106008B54FF05000BF
:1001A00080F31188BFF34F8FBFF36F8F04F088FE89
:1001B0004FF0000080F31188BDE808401968086816
:1001C000B0E8F00F80F30988BFF36F8F704700BF6E
:1001D0002C000020EFF305807047000006488047A0
:1001E00006480047FEE7FEE7FEE7FEE7FEE7FEE71C
:1001F000FEE7FEE7FEE7FEE7BF2E0008310100083C
:10020000202A04DB203A21FA02F00021704721FA6B
:1002100002F3D040C2F120029140084319467047D2
:1002200040EA01039B0703D009E008C9121F08C078
:10023000042AFAD203E011F8013B00F8013B521EF8
:10024000F9D27047D2B201E000F8012B491EFBD26F
:1002500070470022F6E710B513460A4604461946D1
:10026000FFF7F0FF204610BD2DE9FE4F81EA0304A1
:1002700004F0004421F0004100944FF0000B23F003
:10028000004350EA01045ED052EA03045BD0C3F39A
:100290000A54C1F30A552C44A4F2F3340194A0FB90
:1002A0000254C1F3130141F48011C3F3130343F467
:1002B000801301FB024400FB034E840A970A44EAC0
:1002C000815447EA8357A4FB076802958D0A05FB12
:1002D00007854FEA932C04FB0C542705029D4FEA37
:1002E000065847EA1637B5EB08056EEB070C870E84
:1002F000920E47EA811742EA8312A7FB0201B6EB8E
:100300000B0164EB00042B0D43EA0C335E1844EB45
:100310001C50DA465146E7FB0201C5F313044FEACD
:100320000B3343EA14534FEA0432019C43EA0603B9
:10033000A4F10C040294009CCDE900B400F0D3F8C1
:1003400003B0BDE8F08F00200146F9E70EB5C10FFC
:1003500080EAE0700844CA07002140F233438DE888
:100360000E000A460B4600F0BEF803B000BD00F0D8
:10037000004230F000400AD0C10D01F56071C0F3B9
:10038000160042EA0151C20840071143704700209D
:100390000146704701F0004330B421F0004150EABB
:1003A000010206D00A0DA2F56072C1F31301002A02
:1003B00002DC30BC00207047440F44EAC104C10095
:1003C000E01830BC00EBC25000F047B830B50B4627
:1003D000014600202022012409E021FA02F59D4275
:1003E00005D303FA02F5491B04FA02F52844151E49
:1003F000A2F10102F1DC30BD2DE9F05F05460020DD
:1004000092469B4688460646814640241BE0284685
:10041000414647462246FFF7F3FE53465A46C01A66
:10042000914110D311461846224600F003FA2D1AC6
:1004300067EB01084F4622460120002100F0FAF93F
:1004400017EB00094E41201EA4F10104DFDC4846F1
:1004500031462A464346BDE8F09F0029A8BF7047B1
:10046000401C490008BF20F00100704710B4B0FAEA
:1004700080FC00FA0CF050EA010404BF10BC704785
:1004800049B1CCF1200421FA04F411FA0CF118BF9F
:10049000012121430843A3EB0C01CB1D4FEA00616E
:1004A0004FEA102042BF002010BC704700EBC35041
:1004B00010440029A4BF10BC7047401C490008BF6D
:1004C00020F0010010BC704710B5141E73F1000439
:1004D00008DA401C41F1000192185B411A4301D136
:1004E00020F0010010BD2DE9F04D92469B4611B160
:1004F000B1FA81F202E0B0FA80F22032904600F0C8
:1005000099F904460F4640EA0A0041EA0B015346B6
:100510005A46084313D0114653EA010019D0C8F1D6
:1005200040025046FFF76CFE05460E4650465946BF
:10053000424600F07FF9084305D0012004E0204640
:100540003946BDE8F08D0020054346EAE0762C43AD
:1005500037430A986305E40AA0EB08000022FD0A6D
:1005600044EA47540A3002D500200146E9E7010574
:1005700010196941DDE9084500196941BDE8F04DF0
:10058000A2E72DE9FE4F804681EA0300C00F0C462A
:10059000009021F0004123F00045B8EB0200A94192
:1005A00005D24046214690461C460B46024623F0A3
:1005B0000040104347D0270DC7F30A00C3F30A5188
:1005C0000290401A019040286BDAC3F3130040F404
:1005D000801B0098924620B10023D2EB030A63EB04
:1005E0000B0B01985946C0F14002504600F022F929
:1005F00006460D4650465946019A00F02AF910EB7E
:1006000008006141002487EA115284EAE7731A4323
:1006100040D0009A62B3019A012A4FEA075215DCD2
:10062000001B61EB02014FF0004202EA0752CDE9E4
:100630000042001C41F5801132462B46FFF753FF64
:1006400003B0BDE8F08F40462146F9E7001B61EB9F
:100650000201001C41F5801300185B412018A2F52F
:10066000001747EB030140EAD570B6196D4111E060
:100670006D084FEA360645EAC0754FEA0752001B7F
:1006800061EB0201001C41F5801149084FEA30007E
:100690000019514132462B4603B0BDE8F04FFFF739
:1006A00013BF0098012240000023D0EB020263EB4D
:1006B000E073009821464FEAE074B8EB000061EB6C
:1006C0000401E9E783F000435BE781F0004158E76C
:1006D0002DE9F04D81EA030404F0004B21F00045C0
:1006E00014464FF0000A23F0004150EA050220D0E2
:1006F00054EA01021DD0C5F30A570246C5F313039D
:10070000C1F31300C1F30A5640F4801543F480137B
:10071000A7EB0608101BD64608F2FD3873EB050060
:1007200002D308F1010801E092185B41B8F1000F13
:1007300003DA00200146BDE8F08D00204FF480115F
:10074000064684460EE0171B73EB050705D3121B04
:1007500063EB050306434CEA010C49084FEA3000FD
:1007600092185B4150EA0107EDD152EA030012D022
:1007700082EA040083EA0501084305D0101BAB415F
:1007800006D20122002306E000224FF0004302E0DF
:100790006FF0010253101AEB06004CEB085110EBFE
:1007A0000A0041EB0B01BDE8F04DFFF78DBEC1F330
:1007B0000A52C1F3130140F2FF3341F480119A420F
:1007C00002DA00200146704740F233439A42A2F217
:1007D000334202DC5242FFF713BD00F02BB8000099
:1007E00030B5041E71F1000404DB4FF000444042B8
:1007F00064EB0101141E73F1000405DB1C464FF08D
:100800000043524263EB0403994208BF904230BD5B
:10081000064C074D06E0E06840F0010394E807004D
:1008200098471034AC42F6D3FFF786FCD85C00083A
:10083000F85C0008202A04DB203A00FA02F10020CC
:1008400070479140C2F1200320FA03F3194390400E
:100850007047202A06DBCB17203A41FA02F043EA20
:10086000E07306E041FA02F3D040C2F12002914069
:1008700008431946704700BFFEE7704772B600BFD5
:10088000FEE7000070B50446B3F5804F13D1D1E9FF
:10089000000540EA05108D6840EA05208D6928436F
:1008A0008D8940EA054054F82250064E35402843D1
:1008B00044F8220003E06FF0704044F8220000206A
:1008C00070BD00000000F0CF70B50246086852F815
:1008D000200020F001000E6842F8260088680828F1
:1008E00001D1402300E00023486818438E6830435C
:1008F000CE6830430E6930434E693043CE69304391
:100900000E6A30434E6A30438E6A3043CE6A3043BB
:100910000E6B40EA060488690443486B0443074DA4
:1009200045F4806545F4E025086852F82000A843A6
:1009300020430E6842F82600002070BD7FFB0800AF
:1009400010B50346D1E9000440EA04108C6840EA7F
:1009500004208C8940EA0444088A401E44EA00547A
:10096000087D801E44EA00608C692043541C53F8C3
:10097000244004F040442043541C43F82400002049
:1009800010BD0146002291F82100022808D0042061
:10099000886300BF002081F8200000BF012070475D
:1009A0000868006820F00E000B681860086800688E
:1009B00020F001000B68186091F840300120984049
:1009C000CB6B5860012081F8210000BF002081F826
:1009D000200000BF1046E2E770B50446002594F8F9
:1009E0002100022803D00420A0630125C1E0206873
:1009F000006820F00E00216808602068006820F080
:100A00000100216808605C492068884252D95A492F
:100A100078392068884201D1012047E0564964397D
:100A20002068884201D1102040E0534950392068A5
:100A3000884201D1801539E04F493C39206888420D
:100A400001D1801432E04C4928392068884202D113
:100A50004FF480302AE0484914392068884202D196
:100A60004FF4801022E044492068884201D14004BC
:100A70001CE042492068884201D1012016E03F492C
:100A800014312068884201D110200FE03B49283101
:100A90002068884201D1801508E038493C3120683F
:100AA000884201D1801401E04FF480303349091F9E
:100AB000086051E0304978392068884201D101202E
:100AC00047E02D4964392068884201D1102040E078
:100AD000294950392068884201D1801539E02649DA
:100AE0003C392068884201D1801432E022492839FB
:100AF0002068884202D14FF480302AE01E49143920
:100B00002068884202D14FF4801022E01A49206800
:100B1000884201D140041CE018492068884201D174
:100B2000012016E0154914312068884201D11020B7
:100B30000FE0124928312068884201D1801508E071
:100B40000E493C312068884201D1801401E04FF405
:100B50008030094980394860012084F8210000BFB5
:100B6000002084F8200000BF606B10B12046616B4C
:100B70008847284670BD00008000024008040240FB
:100B800070B5044600F000FA06462546681C10B110
:100B900004480078054400BF00F0F6F9801BA84225
:100BA000FAD370BD1C00002000B585B00020019074
:100BB0000290039004901C48006808B105B000BD85
:100BC00001201949086000BF1848406940F480704E
:100BD000164948610846406900F48070009000BFE3
:100BE00000BF41F201000190022002900320049016
:100BF00001A90F4800F022F84FF680700190022002
:100C000002900320049001A90A4800F017F84CF262
:100C100033700190022002900320049001A906483D
:100C200000F00CF800BFC9E70C00002000100240E3
:100C30000020014000180140001401402DE9F84750
:100C4000024600239C467BE14FF0010808FA03F4BA
:100C5000D1F8008008EA0400A0427DD1DFF8F4A2B8
:100C6000D1F80480A8EB0A09D0453AD014DCB8F1D9
:100C7000030F50D009DCB8F1000F31D0B8F1010FEB
:100C80001CD0B8F1020F49D120E0B8F1110F18D0F3
:100C9000B8F1120F42D11EE0B9F5881F25D006DC4D
:100CA000B9F5803F20D0B9F5801F37D11AE0B9F5EA
:100CB000001F18D0B9F5041F30D117E0D1F80CC0CF
:100CC0002DE0D1F80C8008F1040C28E0D1F80C805C
:100CD00008F1080C23E0D1F80C8008F10C0C1EE0A0
:100CE00000BF00BF00BF00BF00BF00BFD1F8088039
:100CF000B8F1000F02D14FF0040C0BE0D1F80880DE
:100D0000B8F1010F03D14FF0080C146102E04FF06D
:100D1000080C546103E04FF0000C00E000BF00BF7E
:100D2000FF2801D8904601E002F104084646FF285A
:100D300002D84FEA830803E0A3F108084FEA8808C5
:100D40004746D6F800804FF00F0909FA07F928EA5C
:100D500009080CFA07F900E07AE048EA0908C6F841
:100D60000080D1F8048008F08058B8F1805F6FD11E
:100D700000BFDFF8E481D8F8188048F00108DFF8F8
:100D8000D891C9F81880C846D8F8188008F001082A
:100D9000CDF8008000BF00BF4FEAB9384FEA930991
:100DA00058F829504FEA83784FEA18794FF00F0826
:100DB00008FA09F825EA0805DFF8A081424502D1C2
:100DC0004FF0000824E0DFF89881424502D14FF04F
:100DD00001081DE0DFF88C81424502D14FF0020886
:100DE00016E0DFF88481424502D14FF003080FE09E
:100DF000DFF87881424502D14FF0040808E0DFF8BF
:100E00007081424502D14FF0050801E04FF006081D
:100E10004FEA83794FEA197908FA09F848EA050593
:100E2000DFF850814FEA930948F82950D1F804803F
:100E300008F48018B8F5801F0BD1DFF83C81D8F892
:100E4000008048EA0008DFF83091C9F800800AE025
:100E500075E0DFF82481D8F8008028EA0008DFF880
:100E60001891C9F80080D1F8048008F40018B8F58A
:100E7000001F0ED1DFF8008108F10408D8F80080C7
:100E800048EA0008DFF8F09009F10409C9F8008089
:100E90000DE0DFF8E48008F10408D8F8008028EAC3
:100EA0000008DFF8D49009F10409C9F80080D1F8EE
:100EB000048008F40038B8F5003F0ED1DFF8B880A0
:100EC000A8F10408D8F8008048EA0008DFF8A890E4
:100ED000A9F10409C9F800800DE0DFF89C80A8F1B1
:100EE0000408D8F8008028EA0008DFF88C90A9F1FF
:100EF0000409C9F80080D1F8048008F48038B8F5F6
:100F0000803F0ED1DFF87080A8F10808D8F8008083
:100F100048EA0008DFF86090A9F10809C9F80080E4
:100F20000DE0DFF85480A8F10808D8F8008028EA1E
:100F30000008DFF84490A9F10809C9F800805B1C9B
:100F4000D1F8008028FA03F8B8F1000F7FF47CAEE6
:100F5000BDE8F887000011100010024000080140B1
:100F6000000C014000100140001401400018014035
:100F7000001C014008000140080401400AB1016161
:100F800001E00B04036170470148006870470000EE
:100F90001400002003480068034909780844014907
:100FA00008607047140000201C00002010B508489D
:100FB000006840F0100006490860032000F0E2F8E5
:100FC0000F2000F007F800F05FF8002010BD0000CF
:100FD000002002402DE9F04188B004460027B846C1
:100FE000002600BF2348C06940F020002149C861A5
:100FF0000846C06900F02000019000BF00BF02A9B0
:1010000003A800F099F9069F1FB900F0BDF9054645
:1010100002E000F0B9F945001748B5FBF0F0A0F187
:10102000010816481649086040F2E7311448C160CB
:10103000C0F80480002101618160816100F05AFDE7
:10104000064696B90E4800F0ABFD06466EB937204D
:1010500000F04AF8102C07D200222146372000F079
:1010600053F80848046000E00126304608B0BDE8A7
:10107000F08100000010024040420F0000140040C8
:10108000200200201800002008B500BF1448806925
:1010900040F00100124988610846806900F00100B3
:1010A000009000BF00BF00BF0846C06940F08050FC
:1010B000C8610846C06900F08050009000BF00BFC2
:1010C00000220F21901E00F01FF800BF054948685C
:1010D00020F0E06040F00070486000BF08BD0000F4
:1010E000001002400000014001460846002809DBCC
:1010F00000F01F0301229A4043099B0003F1E02303
:10110000C3F8002100BF70472DE9F05F80460D460F
:101110001646002702F046F9074639462A46334666
:1011200001F00700C0F1070ABAF1040F02D94FF02D
:10113000040A01E0C0F1070AD14600F1040ABAF13D
:10114000070F02D24FF0000A01E0A0F1030AD446D3
:101150004FF0010A0AFA09FAAAF1010A0AEA020A98
:101160000AFA0CFA4FF0010B0BFA0CFBABF1010B76
:101170000BEA030B4AEA0B042146404602F01AF937
:10118000BDE8F09F00BF00F00702064B19684FF65C
:10119000FF031940044B0B4343EA0221014B196042
:1011A00000BF70470CED00E00000FA0570B5044682
:1011B0000D460CB9012070BD5A48006800F00700C8
:1011C000A8420ED25748006820F00700284355492E
:1011D00008600846006800F00700A84201D001201E
:1011E000E9E7207800F0020002281DD1207800F005
:1011F0000400042805D14C48406840F4E0604A49A6
:101200004860207800F00800082805D1464840686A
:1012100040F46050444948604348406820F0F00082
:10122000A168084340494860207800F0010078B385
:101230006068012806D13C48006800F4003090B98D
:101240000120B8E76068022806D13748006800F03E
:10125000007040B90120AEE73348006800F002009A
:1012600008B90120A7E73048406820F00300616812
:1012700008432D494860FFF787FE064609E0FFF75F
:1012800083FE801B41F28831884202D9032092E715
:1012900007E02548406800F00C006168B0EB810F62
:1012A000EDD12048006800F00700A8420ED91D4883
:1012B000006820F0070028431A49086008460068C3
:1012C00000F00700A84201D0012074E7207800F068
:1012D0000400042807D11448406820F4E060E16865
:1012E000084311494860207800F00800082808D118
:1012F0000D48406820F46050216940EAC1000A4965
:10130000486000F061F808494968C1F30311074AD1
:10131000515CC8400649086006480068FFF75AFE5D
:10132000002048E700200240001002409A5C0008BC
:1013300020000020180000200F2202600D4A526891
:1013400002F0030242600B4A526802F0F00282602F
:10135000084A526802F4E062C260064A526802F427
:101360006052D2080261044A126802F007020A6061
:101370007047000000100240002002400148006851
:10138000704700002000002000B5FFF7F7FF044978
:101390004968C1F30221034A515CC84000BD000006
:1013A00000100240AA5C000800B5FFF7E7FF0449FF
:1013B0004968C1F3C221034A515CC84000BD000026
:1013C00000100240AA5C000870B500210022002431
:1013D00000230020134D696801F00C05F5B1042DC0
:1013E00002D0082D19D101E00F4819E00F4DC1F3CB
:1013F0008346AB5D01F4803555B10A4D6D68C5F388
:1014000040450B4E725D084D5D43B5FBF2F402E0C2
:10141000084D03FB05F4204602E000BF024800BF70
:1014200000BF70BD0010024000127A00885C000806
:10143000985C000800093D00F8B504460CB901208D
:10144000F8BD207800F00100002878D0F848406806
:1014500000F00C0004280CD0F548406800F00C00A7
:10146000082811D1F248406800F48030B0F5803F80
:101470000AD1EF48006800F4003000285FD06068AF
:1014800000285CD10120DBE700BF6068B0F5803F39
:1014900006D1E748006840F48030E549086028E05C
:1014A000606858B9E248006820F48030E04908607C
:1014B0000846006820F4802008601AE06068B0F5F3
:1014C000A02F0BD1DA48006840F48020D84908608A
:1014D0000846006840F4803008600AE0D44800689C
:1014E00020F48030D24908600846006820F480204B
:1014F000086000BF606888B1FFF746FD054606E05A
:10150000FFF742FD401B642801D9032098E7C84833
:10151000006800F400300028F2D010E0FFF734FD3E
:10152000054606E0FFF730FD401B642801D9032083
:1015300086E7BF48006800F400300028F2D1207828
:1015400000F00200022857D1B948406800F00C00B2
:1015500050B1B748406800F00C00082818D1B448D2
:10156000406800F4803098B9B148006800F002008B
:1015700020B12069012801D0012061E7AC48006852
:1015800020F0F800616940EAC100A949086033E031
:101590002069E8B10120A7490860FFF7F5FC05467E
:1015A00006E0FFF7F1FC401B022801D9032047E7C2
:1015B0009F48006800F002000028F2D09C480068B4
:1015C00020F0F800616940EAC1009949086013E021
:1015D000002098490860FFF7D7FC054606E0FFF7B2
:1015E000D3FC401B022801D9032029E7904800685A
:1015F00000F002000028F2D1207800F0080008284E
:101600002DD1A069B8B101208B490860FFF7BCFC5F
:10161000054606E0FFF7B8FC401B022801D903206D
:101620000EE78348406A00F002000028F2D0012053
:1016300001F0D2FB13E000207F490860FFF7A4FC13
:10164000054606E0FFF7A0FC401B022801D9032055
:10165000F6E67748406A00F002000028F2D12078D0
:1016600000F00400042873D100277148C06900F01D
:10167000805070B900BF6E48C06940F080506C491E
:10168000C8610846C06900F08050009000BF00BFEC
:1016900001276A48006800F48070B0B967480068A4
:1016A00040F4807065490860FFF76EFC054606E06F
:1016B000FFF76AFC401B642801D90320C0E65F489D
:1016C000006800F480700028F2D000BFE0680128B4
:1016D00006D15748006A40F001005549086227E0EA
:1016E000E06858B95248006A20F001005049086289
:1016F0000846006A20F00400086219E0E068052846
:101700000BD14B48006A40F0040049490862084682
:10171000006A40F0010008620AE04548006A20F0D3
:101720000100434908620846006A20F0040008628C
:1017300000BFE068A0B1FFF727FC054609E0FFF70E
:1017400023FC401B41F28831884202D9032077E60E
:1017500022E03748006A00F002000028EFD012E0D3
:10176000FFF712FC054608E0FFF70EFC401B41F2B4
:101770008831884201D9032062E62D48006A00F0D2
:1017800002000028F0D1012F05D12948C06920F0BE
:1017900080502749C86100BFE069C8B32448406849
:1017A00000F00C00082860D0E069022848D1002031
:1017B00020490866FFF7E8FB054606E0FFF7E4FB73
:1017C000401B022801D903203AE61948006800F0BE
:1017D00000700028F2D1206AB0F5803F07D114488C
:1017E000406820F40030A168084311494860D4E9FA
:1017F000080108430E49496821F4741108430C4953
:10180000486001200B490866FFF7BEFB054607E06C
:101810003DE0FFF7B9FB401B022801D903200FE68A
:101820000348006800F000700028F2D02FE00000AC
:10183000001002400000424280044242007000401A
:10184000002014490866FFF79FFB054606E0FFF7F6
:101850009BFB401B022801D90320F1E50E480068DC
:1018600000F000700028F2D111E0E069012800D1F9
:10187000E6E50948466806F48031206A814204D1D1
:1018800006F47011606A814201D00120D8E5002081
:10189000D6E50000000042420010024010B50446A8
:1018A0000CB9012010BD606A38B96068B0F5827F5C
:1018B00000D105E00021E16102E0002121616161C8
:1018C0000021A16294F8510028B9002084F850004A
:1018D000204600F043F8022084F851002068006898
:1018E00020F0400021680860A08800F482702189FF
:1018F00001F404410843A18901F400610843217CFB
:1019000001F002010843217D01F001010843218B10
:1019100001F400710843217F01F0380108432021C0
:10192000095D01F080010843218D01F40051084355
:10193000216808600421A06901EA1040216848601C
:101940002068C06920F400602168C86100206065DB
:10195000012084F851000020A4E7000010B586B0F3
:101960000446002002900390049005901A492068D4
:1019700088422FD100BF1948C06940F48040174900
:10198000C8610846C06900F48040019000BF00BFF4
:1019900000BF0846806940F00800886108468069F9
:1019A00000F00800019000BF00BF4FF420400290FB
:1019B000022003900320059002A90948FFF73EF991
:1019C0004FF48040029000200390049002A9044844
:1019D000FFF734F906B010BD003800400010024097
:1019E000000C014070B504460E4615461CB1A069B6
:1019F000B0F5807F01D1012070BD94F8410028B975
:101A0000002084F84000204600F01FF804F108018F
:101A10002068FEF759FF3146A2682068FEF790FF64
:101A20002946236BD4E90102FEF72CFFA168206848
:101A300050F8210040F00100A268216841F822001E
:101A4000012084F841000020D6E710B50446FFF7D6
:101A5000ABF810BD7047704730B502460B4600BF6B
:101A600092F83C00012801D1022030BD012082F80B
:101A70003C0000BF022082F83D00106844681068F6
:101A8000816824F070041868044310684460144DA1
:101A90001068A84213D0134D1068A8420FD01068E8
:101AA000B0F1804F0BD0104D1068A84207D00F4DF9
:101AB0001068A84203D00E4D1068A84205D121F04D
:101AC00080015868014310688160012082F83D0060
:101AD00000BF002082F83C0000BF00BFC5E7000047
:101AE000002C014000340140000400400008004088
:101AF000000C004010B504460CB9012010BD94F84C
:101B00003D0028B9002084F83C00204600F026F86B
:101B1000022084F83D00211D206801F0E1F9012038
:101B200084F8460000BF84F83E0001213F200155A3
:101B3000402001554120015500BF00BF012084F81D
:101B4000420043200155442001554520015500BF66
:101B5000012084F83D000020D0E7000038B504469D
:101B60000D492068884215D100BF0C48C06940F07B
:101B700010000A49C8610846C06900F010000090D2
:101B800000BF00BF002205213620FFF7BDFA362036
:101B9000FFF7AAFA38BD0000001000400010024014
:101BA000014691F83D00012801D001207047022034
:101BB00081F83D000868C06840F001000B68D860FB
:101BC000164B0868984213D0154B086898420FD0FE
:101BD0000868B0F1804F0BD0124B0868984207D0CC
:101BE000114B0868984203D0104B086898420CD1FA
:101BF0000868806800F00702062A0CD008680068B0
:101C000040F001000B68186005E00868006840F0CB
:101C100001000B6818600020C8E70000002C01409C
:101C2000003401400004004000080040000C004067
:101C300001460868C06820F001000A68D06000BF53
:101C40000868006A41F21112104050B90868006A31
:101C50009210104028B90868006820F001000A6856
:101C6000106000BF012081F83D00002070477047E0
:101C700010B5044620680069C0F34000D8B1206860
:101C8000C068C0F34000B0B16FF002002168086185
:101C9000012020772068806900F0030018B12046F9
:101CA000FFF7E5FF05E0204600F0ADF8204600F024
:101CB000ABF80020207720680069C0F38000D8B11D
:101CC0002068C068C0F38000B0B16FF004002168E4
:101CD0000861022020772068806900F4407018B104
:101CE0002046FFF7C4FF05E0204600F08CF82046B0
:101CF00000F08AF80020207720680069C0F3C00057
:101D0000D8B12068C068C0F3C000B0B16FF008005F
:101D100021680861042020772068C06900F0030072
:101D200018B12046FFF7A3FF05E0204600F06BF84E
:101D3000204600F069F80020207720680069C0F391
:101D40000010D8B12068C068C0F30010B0B16FF0C7
:101D5000100021680861082020772068C06900F41D
:101D6000407018B12046FFF782FF05E0204600F0E2
:101D70004AF8204600F048F80020207720680069E3
:101D800000F0010058B12068C06800F0010030B1D7
:101D90006FF0010021680861204600F037F82068E4
:101DA0000069C0F3C01058B12068C068C0F3C0100B
:101DB00030B16FF08000216808612046FFF74AFECD
:101DC00020680069C0F3801058B12068C068C0F373
:101DD000801030B16FF0400021680861204600F0AB
:101DE00031F820680069C0F3401058B12068C0681D
:101DF000C0F3401030B16FF0200021680861204628
:101E0000FFF729FE10BD70477047000010B504466B
:101E100008492068884205D10120074948720748CF
:101E2000FFF706FF06492068884201D1FFF7B2F8A4
:101E300010BD0000001000404003002048010020B9
:101E40000014004070477047704700002DE9F84FBC
:101E50000446206805682068C668206847694FF016
:101E60000009CA4605F00F09B9F1000F0AD105F0C3
:101E7000200038B106F0200020B1204601F0DAF849
:101E8000BDE8F88FB9F1000F7BD007F0010018B959
:101E900006F49070002874D005F0010030B106F40B
:101EA000807018B1606C40F00100606405F00400BF
:101EB00030B107F0010018B1606C40F002006064BE
:101EC00005F0020030B107F0010018B1606C40F07D
:101ED0000400606405F0080048B106F0200010B965
:101EE00007F0010018B1606C40F008006064606C9D
:101EF000002845D005F0200028B106F0200010B1E0
:101F0000204601F097F820684069C0F3801A606CA1
:101F100000F0080010B9BAF1000F2CD0204601F0F3
:101F200043F82068406900F0400000B300BF00BFE4
:101F30002168143151E8001F21F04000216814315C
:101F400041E80002002AF3D100BFE06B50B17748AE
:101F5000E16B4863E06BFEF73FFD88B1E06B416BDE
:101F600088470DE02046FFF76FFF09E009E02046B3
:101F7000FFF76AFF04E02046FFF766FF0020606479
:101F80007EE7206B012877D105F01000002873D080
:101F900006F010000028FAD000BF00200090206852
:101FA0000068009020684068009000BF00BF206873
:101FB000406900F0400000285FD0E06B0068406896
:101FC0001FFA80F8B8F1000F55D0A08D404552DDC2
:101FD000A4F82E80E06B8069202843D000BF00BFAA
:101FE00021680C3151E8001F21F4807021680C3108
:101FF00041E80002002AF3D100BF00BF00BF216802
:10200000143151E8001F21F001002168143141E82A
:102010000002002AF3D100BF00BF00BF21681431C5
:1020200051E8001F21F040002168143141E800020E
:10203000002AF3D100BF202084F842000020206352
:1020400000BF00BF21680C3151E8001F21F01000D3
:1020500021680C3141E80002002AF3D100BFE06B97
:10206000FEF78FFC02206063A08DE28D801A81B2A2
:102070002046FFF7E8FE03E742E0A08DE18D401A1D
:102080001FFA80F8E08DD0B3B8F1000F37D000BF51
:1020900000BF21680C3151E8001F21F490702168C5
:1020A0000C3141E80002002AF3D100BF00BF00BF9D
:1020B0002168143151E8001F21F00100216814311A
:1020C00041E80002002AF3D100BF202084F842003A
:1020D0000020206300BF00BF21680C3151E8001FC1
:1020E00021F0100021680C3141E80002002AF3D1F0
:1020F00000BF0220606341462046FFF7A4FEBFE612
:1021000005F0800030B106F0800018B1204601F0E3
:10211000ADF8B5E605F0400030B106F0400018B16A
:10212000204600F077FFABE600BFA9E6952F000838
:1021300010B504460CB9012010BDA06900B100E043
:1021400000BF94F8410028B9002084F840002046E0
:1021500000F02AF8242084F841002068C06820F4A8
:1021600000502168C860204600F0E2FF2068006946
:1021700020F49040216808612068406920F02A001E
:10218000216848612068C06840F400502168C86038
:1021900000206064202084F8410084F84200002080
:1021A000606300BFC8E7000010B586B00446002099
:1021B00002900390049005903B492068884237D1F3
:1021C00000BF3A48806940F4804038498861084639
:1021D000806900F48040019000BF00BF00BF084646
:1021E000806940F0040088610846806900F00400BE
:1021F000019000BF00BF4815029002200390032009
:10220000059002A92A48FEF719FD4FF4806002905C
:1022100000200390049002A92548FEF70FFD00223C
:1022200005212520FEF770FF2520FEF75DFF39E030
:1022300020492068884235D100BF1C48C06940F45D
:1022400000301A49C8610846C06900F400300190A6
:1022500000BF00BF00BF0846806940F004008861ED
:102260000846806900F00400019000BF00BF042010
:102270000290022003900320059002A90C48FEF76B
:10228000DDFC0820029000200390049002A9084879
:10229000FEF7D4FC002205212620FEF735FF26207C
:1022A000FEF722FF06B010BD0038014000100240CA
:1022B000000801400044004070B504460D46164633
:1022C00094F8420020280BD105B10EB9012070BD51
:1022D0000020206332462946204600F0A7FFF6E79B
:1022E0000220F4E710B504461A492068884215D147
:1022F00019480178194802780078401C174B18706B
:102300001748815418460078642802DB00201946DB
:102310000870012210491348FFF7CEFF12492068C8
:10232000884216D1114801781148027A007A401C7F
:102330000F4B187218468154007A082804DB0020DD
:102340001946087201204872012208490948FFF71E
:10235000B3FF10BD003801402600002024000020FB
:102360006802002090010020004400402900002065
:1023700040030020D80100202DE9F84F04460E4606
:10238000174699464FF0000A94F8410020284AD198
:1023900006B117B90120BDE8F88F00206064212044
:1023A00084F84100FEF7F0FD8246A784E784A06828
:1023B000B0F5805F04D1206910B90025B04602E075
:1023C00035464FF000081BE053460022802120468E
:1023D000CDF8009000F07AFF08B10320DBE745B9A3
:1023E000B8F80000C0F308002168486008F102084E
:1023F00003E02878216848606D1CE08C401EE08472
:10240000E08C0028E0D15346002240212046CDF840
:10241000009000F05BFF08B10320BCE7202084F8A7
:1024200041000020B7E70220B5E7704700BFFEE794
:102430000348002101604160002001490872704793
:10244000400300202DE9FE4300243948407A01284A
:1024500069D1002036494872084600784978084416
:102460003349897808443249C978084430490979A0
:1024700008442F49497908442D4989790844C4B250
:102480002B48C079A04248D1294800785F2840D124
:1024900027498978264A527801EB0220FDF756FF3A
:1024A0000746244A244BFDF7DFFE0546FDF772FF81
:1024B000224908601E4909791D4AD27801EB0220A1
:1024C000FDF744FF07461E4A1E4BFDF7CDFE0546AD
:1024D000FDF760FF1949486015488079144949792A
:1024E00000EB0120154908814868FDF740FF0546CB
:1024F0000E4612490868FDF73AFF07460F48008963
:102500003A460B46CDE9005602900FA000F03AFF84
:1025100006E014A000F036FF02E017A000F032FF42
:10252000FFF786FF02E018A000F02CFFBDE8FE8355
:10253000400300209A9999999999B93F4C0300203A
:102540007B14AE47E17A843F564F433D252E3166DA
:102550002C434832303D252E32662C434F323D25E8
:10256000640D0A004B514DB5D8D6B7C2EBB2BBD5FE
:10257000FDC8B70D0A0000004B514DD0A3D1E9B200
:10258000BBCDA8B9FD0D0A00CEB4BDD3CAD5CDEAE6
:10259000B3C90D0A0000000070B5044600260948C2
:1025A0000588408845430021084600F041FA00F0C4
:1025B00065FA00BF02E004480480761CAE42FAD3FC
:1025C00070BD0000300300200008006C10B5CF2063
:1025D00000F04EFA002000F045FAC12000F042FA67
:1025E000302000F03FFAED2000F042FA642000F0C5
:1025F00039FA032000F036FA122000F033FA812075
:1026000000F030FAE82000F033FA852000F02AFAD2
:10261000102000F027FA7A2000F024FACB2000F0F6
:1026200027FA392000F01EFA2C2000F01BFA0020B7
:1026300000F018FA342000F015FA022000F012FA27
:10264000F72000F015FA202000F00CFAEA2000F044
:102650000FFA002000F006FA002000F003FAC02074
:1026600000F006FA1B2000F0FDF9C12000F000FA8E
:10267000012000F0F7F9C52000F0FAF9302000F051
:10268000F1F9302000F0EEF9C72000F0F1F9B720A1
:1026900000F0E8F9362000F0EBF9482000F0E2F90C
:1026A0003A2000F0E5F9552000F0DCF9B12000F007
:1026B000DFF9002000F0D6F91A2000F0D3F9B62097
:1026C00000F0D6F90A2000F0CDF9A22000F0CAF9F6
:1026D000F22000F0CDF9002000F0C4F9262000F02F
:1026E000C7F9012000F0BEF9E02000F0C1F90F2089
:1026F00000F0B8F92A2000F0B5F9282000F0B2F96E
:10270000082000F0AFF90E2000F0ACF9082000F02E
:10271000A9F9542000F0A6F9A92000F0A3F943205C
:1027200000F0A0F90A2000F09DF90F2000F09AF9BE
:10273000002000F097F9002000F094F9002000F04C
:1027400091F9002000F08EF9E12000F091F90020CD
:1027500000F088F9152000F085F9172000F082F9C3
:10276000072000F07FF9112000F07CF9062000F02E
:1027700079F92B2000F076F9562000F073F93C200F
:1027800000F070F9052000F06DF9102000F06AF9F2
:102790000F2000F067F93F2000F064F93F2000F0BF
:1027A00061F90F2000F05EF92B2000F061F90020A4
:1027B00000F058F9002000F055F9012000F052F91E
:1027C0003F2000F04FF92A2000F052F9002000F0DD
:1027D00049F9002000F046F9002000F043F9EF200D
:1027E00000F040F9112000F043F97820FEF7C8F915
:1027F000292000F03DF910BD10B5044674B9002041
:102800000F498871F02008804FF4A07048802C2078
:1028100008812A2048812B2088810DE00120084969
:1028200088714FF4A0700880F02048802C20088127
:102830002A2048812B208881002000F055F810BD07
:102840003003002010B53220FEF79AF900F01CF892
:10285000FFF7BCFE0020FFF7CFFF0122114604481E
:10286000FEF78CFB4FF6FF70FFF796FE10BD0000E1
:10287000000C014008B5034800880090BDF8000036
:1028800008BD00000008006C10B5D32000F0F0F87F
:10289000FFF7F0FF0F498880FFF7ECFF0D498880B4
:1028A000FFF7E8FF0B498880084680884FF6FF71E4
:1028B00001EA002007498880FFF7DCFF0549898885
:1028C0000843044988800846818803A000F05AFD27
:1028D00010BD0000300300206C6364206964A3BA5B
:1028E00025580D0A0000000070B50446002300269C
:1028F0004E488079012818D1082C15D2DFE804F061
:102900000406080A0C0E101206240DE007240BE042
:10291000042409E0052407E0012405E0002403E085
:10292000032401E0022400BF00BF4048808849F230
:102930004131884278D1082C1CD2DFE804F004062B
:10294000090C0F12151800BF14E043F0800311E0CA
:1029500043F040030EE043F0C0030BE043F02003DC
:1029600008E043F0600305E043F0A00302E043F019
:10297000E00300BF00BF362643F008031946304687
:1029800000F086F82948808841F6631188421DD0FE
:1029900003F0200068B1254800882449498888420E
:1029A00014DA224805884088204908800846458076
:1029B0000CE01E4800881D494988884206DD1B48F6
:1029C0000588408819490880084645801749488984
:1029D00000F04EF8002000F045F8002000F042F82A
:1029E00012490988491EC1F30F2000F03BF80F4936
:1029F0000978491EC8B200F035F80C49888900F002
:102A000037F8002000F02EF8002000F02BF80749DE
:102A10004988491EC1F30F2000F024F80349897842
:102A2000491EC8B200F01EF870BD0000300300203F
:102A300000B502460B460A49488900F019F8101201
:102A400000F010F8D0B200F00DF80549888900F0C8
:102A50000FF8181200F006F8D8B200F003F800BD25
:102A60003003002001490880704700000008006C16
:102A70000149088070470000FE07006C0248008989
:102A8000024908807047000030030020FE07006CF8
:102A9000024A1080921C118070470000FE07006CF3
:102AA00010B50B4A00210B4801F0A6F90A4908604D
:102AB0000A4A00210A4801F09FF90A4908600A4AB7
:102AC00000210A4801F098F90949086010BD00008A
:102AD0001C5C0008012E000800000020405C00087B
:102AE0000B2E000804000020645C0008152E00086E
:102AF0000800002000B587B01C216846FDF7A9FB3F
:102B00004FF020401B4908601B4848600620886041
:102B100000211848C16001611021416100218161DB
:102B2000C161016241624FF4805181620021C16242
:102B3000016341638163002000900F200190032016
:102B40000290002003901020049011200590002096
:102B50000690002269460748FEF744FF08B1FDF7DA
:102B60008DFE0648C06940F480600449C86107B022
:102B700000BD0000A8000020040100A000000140EA
:102B800000B585B00020019002900390049000BF32
:102B90004A48806940F04000484988610846806999
:102BA00000F04000009000BF00BF00BF08468069F1
:102BB00040F0100088610846806900F01000009025
:102BC00000BF00BF00BF0846806940F00400886174
:102BD0000846806900F00400009000BF00BF00BFFD
:102BE0000846806940F0080088610846806900F066
:102BF0000800009000BF00BF00BF0846806940F495
:102C0000807088610846806900F48070009000BF81
:102C100000BF00BF0846806940F020008861084678
:102C2000806900F02000009000BF00BF01223C211D
:102C30002348FEF7A3F9002201212248FEF79EF95E
:102C4000012211031F48FEF799F93C200190012051
:102C50000290002003900220049001A91848FDF77B
:102C6000EDFF0120019000200290039001A9164879
:102C7000FDF7E4FF7020019000200290039001A96D
:102C80001248FDF7DBFF0120019002900020039025
:102C90000220049001A90B48FDF7D0FF4FF48050AB
:102CA000019001200290002003900320049001A9CC
:102CB0000448FDF7C3FF05B000BD0000001002404E
:102CC00000180140000C01400008014000100140C4
:102CD00010B50E480E4908604FF48270486000211C
:102CE0000B488160C16002210161012141614902FB
:102CF00081610021C1610162416281620A21C16278
:102D0000FEF7CCFD08B1FDF7B9FD10BD003800405D
:102D1000F00000201CB50020009001900E480F49E3
:102D2000086040F2E730486000210C4881608F2144
:102D3000C16000218161FEF7DDFE08B1FDF79EFD57
:102D400000200090019069460448FEF785FE08B116
:102D5000FDF794FD1CBD000000100040480100205C
:102D600010B50B480B4908604FF4E1304860002172
:102D700008488160C16001610C21416100218161CD
:102D8000C161FFF7D5F908B1FDF778FD10BD00006E
:102D9000003801409001002010B50B480B49086035
:102DA0004FF416504860002108488160C1600161FD
:102DB0000C21416100218161C161FFF7B9F908B1BE
:102DC000FDF75CFD10BD000000440040D80100206C
:102DD00000BFFEE700BFFEE708B508490968C9085B
:102DE0004FF47A72B1FBF2F14143009100BF00BF92
:102DF00000994A1E00920029F9D108BD2000002048
:102E000000BF012000F09AFFFBE700BF012000F0A7
:102E100095FFFBE700BFFFF715FB0A2000F08EFFD0
:102E2000F9E7000010B500BF502080F31188BFF310
:102E30004F8FBFF36F8F00BF02F0B0FC18B14FF09F
:102E400080500449086000BF002080F3118800BF53
:102E500010BD000004ED00E000B58FB0282105A8EA
:102E6000FDF7F7F914216846FDF7F3F90120059005
:102E700000040690002007900120099002200C9089
:102E8000C1030D914FF4E0110E9105A8FEF7D4FA9D
:102E900008B1FDF7F3FC0F20009002200190002004
:102EA00002904FF480600390002004900221684655
:102EB000FEF77CF908B1FDF7E1FC0FB000BD7047EB
:102EC00010B50248FEF7D4FE10BD000048010020F6
:102ED00010B50248FEF7CCFE10BD00002002002015
:102EE00010B50268204B98420ED0204B98420BD070
:102EF000B0F1804F08D01E4B984205D01D4B984230
:102F000002D01D4B984203D122F070024B681A4345
:102F1000154B98420ED0154B98420BD0B0F1804F14
:102F200008D0134B984205D0124B984202D0124B56
:102F3000984203D122F44072CB681A4322F08003F6
:102F40004C6943EA040202608B68C3620B688362C7
:102F5000054B984202D0054B984201D10B6903639F
:102F60000123436110BD0000002C014000340140EA
:102F70000004004000080040000C004001B54FF480
:102F80008073012269460248FFF7F6F908BD000088
:102F90009001002070B505466C6A0020E085E08451
:102FA0002046FEF751FF70BD00BF00BF02680C3223
:102FB00052E8002F22F4907102680C3242E80013AC
:102FC000002BF3D100BF00BF00BF0268143252E8EB
:102FD000002F22F001010268143242E80013002B96
:102FE000F3D100BF016B01290ED100BF00BF026801
:102FF0000C3252E8002F22F0100102680C3242E835
:103000000013002BF3D100BF202180F842100021D3
:103010000163704710B504462068C06820F0400086
:103020002168C860202084F841002046FFF7FDF9A0
:10303000002010BDF8B5044694F84200222875D14E
:10304000A068B0F5805F0CD1206950B90025A66A50
:1030500020684068C0F308003080A06A801CA0622D
:1030600015E0A56A0026A068B0F5805F03D0A068CF
:1030700028B9206918B920684068287004E02068E1
:10308000406800F07F002870A06A401CA062E08DBC
:10309000401E80B2E085002846D12068C06820F03C
:1030A00020002168C8602068C06820F48070216812
:1030B000C8602068406920F0010021684861202034
:1030C00084F8420000206063206B012826D1002094
:1030D000206300BF00BF21680C3151E8001F21F0C0
:1030E000100021680C3141E80002002AF3D100BF32
:1030F0002068006800F0100010280AD100BF0020EE
:10310000009020680068009020684068009000BF30
:1031100000BFA18D2046FEF796FE02E02046FFF795
:10312000E1F80020F8BD01E00020FBE70220F9E70C
:1031300070B504462168096921F44051E2681143E1
:10314000226811612269A1681143626941EA02059E
:103150002168C96841F20C62914329432268D16019
:103160002168496921F44071A269114322685161C3
:103170002D4A2168914202D1FEF716F901E0FEF7CF
:1031800003F900EBC00101EB001162689200B1FB92
:10319000F2F100EBC00202EB001263689B00B2FB8D
:1031A000F3F26423B2FBF3F202EBC20303EB02126D
:1031B000A1EB8201322202EB01116422B1FBF2F198
:1031C00001F0F00100EBC00202EB001263689B000B
:1031D000B2FBF3F26423B2FBF3F201EB021200EB59
:1031E000C00101EB001163689B00B1FBF3F100EB40
:1031F000C00303EB00136668B600B3FBF6F3642666
:10320000B3FBF6F303EBC30606EB0313A1EB830159
:10321000322303EB01116423B1FBF3F101F00F0141
:1032200011442268916070BD0038014010B503461A
:1032300099629A85DA8500205864222083F842003A
:10324000186928B11868C06840F480701C68E06094
:103250001868406940F001001C6860611868C06827
:1032600040F020001C68E060002010BD014691F88D
:103270004100212828D18868B0F5805F0BD108690A
:1032800048B90A6A1088C0F308000B685860086AD9
:10329000801C086205E00B6A581C086218780B68ED
:1032A0005860C88C401E80B2C88458B90868C0688D
:1032B00020F080000B68D8600868C06840F04000CB
:1032C0000B68D860002070470220FCE72DE9F04130
:1032D00004460D4617469846069E34E0701C88B397
:1032E0002EB1FDF751FEA0EB0800B0422BD900BF74
:1032F00000BF21680C3151E8001F21F4D070216813
:103300000C3141E80002002AF3D100BF00BF00BF2A
:103310002168143151E8001F21F0010021681431A7
:1033200041E80002002AF3D100BF202084F84100C8
:1033300084F8420000BF002084F8400000BF032052
:10334000BDE8F081FFE7206800682840A84201D16D
:10335000012000E00020B842C0D00020F0E70000CB
:1033600010B50248FEF772FD10BD0000900100206C
:1033700010B50248FEF76AFD10BD0000D80100201C
:1033800000BFFEE70FB4054B10B503A9044A02982D
:1033900000F0FEF810BC5DF814FB0000BF3C000814
:1033A000A400002002480068C0F30220704700001B
:1033B0000CED00E010B5002804DB0A07130E054AE7
:1033C000135406E00A07140E034A00F00F031B1FF4
:1033D000D45410BD00E400E018ED00E0EFF31180DC
:1033E0007047EFF305807047EFF31080704702E0FD
:1033F00008C8121F08C1002AFAD170477047002080
:1034000001E001C1121F002AFBD170472DE9FF5FC7
:1034100082B00021DDE90430020DDDF840B0034345
:1034200018D044F61050A2F2FF32424315141198FE
:1034300001281FD0A5EB0B00401C5FEA000A4FF0EB
:1034400000064E4FDFF83891B046504615D5CAF108
:10345000000413E0119801244AA3012801D16FEA66
:103460000B010298119AC0E90031C0E9024206B08E
:10347000BDE8F09FCBF10000DFE704460021404AA1
:10348000491842EB0450CDE9001012E0E00707D0E4
:1034900032463B4640464946FCF7E6FE80468946B2
:1034A00032463B4610461946FCF7DEFE06460F46FE
:1034B0006410002CEAD1DDE90401DDE90023BAF152
:1034C000000F06DAFCF7D0FE42464B46FCF7CCFE76
:1034D00005E0FDF7FDF842464B46FDF7F9F80446D6
:1034E0000E460022284BFDF77BF903D84FF0FF3042
:1034F000014607E00022254B20463146FDF741F802
:10350000FDF755F9102409E0002C0ADB0A220023FC
:10351000FCF772FF039B30321A55641E50EA010219
:10352000F2D1641C039AC4F111031444119A012AC4
:1035300003D0012208430DD10AE0084304D0002043
:103540004FF0110B119072E7A3EB0B056D1E0DE010
:103550005B4504DD4FF0000205F1010504E003DAEC
:103560004FF00002A5F10105002AECD00298119954
:10357000C0E90231C0E9004579E7000000001440CD
:103580000000F03F300000000000F0430000E03F8A
:103590002DE9FF4F95B09B468946064600250FE270
:1035A000252877D100242746F84A0121059400E018
:1035B000044316F8013F203B01FA03F01042F7D113
:1035C00030782A2811D06FF02F033078A0F1300224
:1035D000092A16D8059A44F0020402EB820203EB92
:1035E00042021044761C0590EFE759F8042B05922F
:1035F000002A03DA504244F40054059044F00204D7
:10360000761C30782E2816D116F8010F44F00404E9
:103610002A280DD06FF02F023078A0F13003092B4B
:1036200009D807EB870302EB4303C718761CF3E7BF
:1036300059F8047B761C30786C280FD006DC4C28B7
:1036400017D068280DD06A2814D104E0742810D04F
:103650007A280FD10DE044F400140AE044F48014F9
:1036600001E044F440147278824202D104F58014DF
:10367000761C761C307866280BD013DC582877D05F
:1036800009DC002875D04528F6D04628F4D0472814
:103690001AD19DE118E0632835D0642879D06528D7
:1036A00012D195E1702873D008DC6728F1D0692821
:1036B0006FD06E280DD06F2806D1B5E073282CD0BE
:1036C000752875D0782874D05A46179990476D1C84
:1036D00075E1C4F30250022809D003280DD0D9F8AF
:1036E000001004280DD00D6009F1040967E1D9F834
:1036F0000010EA17C1E90052F6E7D9F800100D8072
:10370000F2E70D70F0E719F8041B8DF800100020A7
:103710008DF80100EA46012003E059F804AB4FF0B0
:10372000FF3061074FF0000102D40DE008F1010104
:103730008846B9420FDA8045F8DB1AF808100029EC
:10374000F4D108E008F1010188468142FADB1AF859
:1037500008100029F6D105985B46A0EB0807214622
:103760003846179A00F094FA284400EB080507E061
:103770004DE029E10DE01AF8010B5A4617999047E0
:10378000B8F10108F7D25B4621463846179A13E193
:1037900042E00A220092C4F302524FF0000A022AC9
:1037A00008D059F804CB032A4FEAEC710AD00DE097
:1037B00029E02AE009F1070121F00702F2E802C13D
:1037C000914609E00FFA8CFC4FEAEC71042A03D110
:1037D0004FFA8CFC4FEAEC71002907DA0A46002107
:1037E000DCF1000C61EB02012D2202E0220504D580
:1037F0002B228DF80420012203E0E20701D02022D1
:10380000F7E7904659E00A2102E010220DE010216E
:103810004FF0000A00910BE010224FF0000A44F034
:1038200004040827009203E008224FF0000A0092E7
:10383000C4F30252022A05D059F804CB0021032A0E
:1038400008D009E009F1070121F00702F2E802C1FE
:10385000914605E01FFA8CFC042A01D10CF0FF0C04
:103860004FF00008220728D5702806D0009B83F06F
:10387000100353EA0A0305D00EE040228DF804201D
:10388000012208E05CEA010206D030228DF8042013
:103890008DF8050002229046009B83F0080353EA4E
:1038A0000A030AD15CEA010201D1620705D5302280
:1038B0008DF804204FF001087F1E582804D034A052
:1038C00003900EA802900DE036A0F9E7534660463B
:1038D000009AFCF791FD84460398825C0298401E92
:1038E000029002705CEA0100F0D1029806A9081A61
:1038F00000F1200A600702D524F4803400E001279B
:10390000574502DDA7EB0A0000E0002000EB0A01AA
:10391000009005984144401A0590E00306D45B46A8
:103920002146179A059800F0B3F90544002706E0F0
:1039300001A85A46C05D179990476D1C7F1C4745EA
:10394000F6DBE0030CD55B462146179A059800F09C
:103950009FF9054404E030205A46179990476D1CA2
:103960000099481E00900029F5DC08E002980299B1
:103970005A460078491C0291179990476D1CBAF17C
:103980000001AAF1010AF1DC65E10000092801004B
:1039900030313233343536373839616263646566C5
:1039A0000000000030313233343536373839414287
:1039B000434445460000000000F058F90544761CD9
:1039C000307800287FF4ECAD19B02846BDE8F08FC0
:1039D000620700D4062709F1070222F0070CFCE871
:1039E0000223E14603F000485FEA080C02D00FF220
:1039F000702C0DE05FEA045C02D50FF2682C07E042
:103A00005FEAC47C02D00FF2602C01E0AFF2700CD0
:103A10004FF0FF3823F00043CDF850C065280CD09C
:103A200006DC452809D046281DD047283DD13DE079
:103A3000662818D067287ED138E00021112F01DBDD
:103A4000112000E0781CCDE9000106A90EA8FFF7BF
:103A5000DDFCDDE90F010E9A03910021009207F1D0
:103A6000010A04914DE04FF000400097CDE90110AC
:103A700006A90EA8FFF7CAFCDDE90F0203920E9B10
:103A800011990022DDF80CA00093049211B9791C61
:103A900000EB010AB7EB0A0004D4C0F1FF3007F1D4
:103AA000010A0490AAEB0700019044E0012F00DA1C
:103AB00001270021112F01DD112000E03846CDE95A
:103AC000000106A90EA8FFF7A1FCDDE90F010E9A7F
:103AD0000391002104910092BA4621070CD4039966
:103AE000514500DA8A46BAF1010F05DD009AAAF1C4
:103AF0000101515C302908D0B84202DA10F1040FFC
:103B000006DA0121CDE9011015E0AAF10101E9E78A
:103B1000002805DC049901440491AAEB000102E0AD
:103B2000411C514500DD8A460499401A401C019011
:103B30004FF000400290200704D40198504501DB6B
:103B4000CDF8048000208DF84F0002980DF14F074A
:103B5000B0F1004F25D02B200E9002984FF00208B4
:103B600000280CDA404202902D200E9007E00A2136
:103B70000298FCF72BFC3031029007F8011DB8F1D8
:103B80000001A8F10108F2DC02980028EFD1791EAB
:103B90000E980870307800F0200040F0450007F8DB
:103BA000020D12A8C01B00F107081498007800B19C
:103BB000012000EB0A01019801EBE07105984144F6
:103BC000401A401E0590E00306D45B462146179A32
:103BD000059800F05DF805441498007818B15A462D
:103BE000179990476D1CE00324D55B462146179A30
:103BF000059800F04DF805441CE00498002807DB08
:103C0000DDE90301884203DD0098405C179901E07B
:103C1000179930205A469047049805F10105401C39
:103C200004900198401E019004D12E205A46179905
:103C300090476D1CBAF10001AAF1010ADDDC05E034
:103C400017F8010B5A46179990476D1CB8F10001FF
:103C5000A8F10108F4DC5B462146179A0598ABE60B
:103C60002D0000002B000000200000002DE9F04195
:103C7000044600251E461746880404D405E039464C
:103C80002020B0476D1C641EF9D52846BDE8F081A0
:103C90002DE9F041044600251E469046C80301D593
:103CA000302700E02027880404D505E04146384647
:103CB000B0476D1C641EF9D52846BDE8F08170B58B
:103CC00004460D46E0B2FFF759F9204670BD0000EA
:103CD000FDF76CF9FFF7C0F8FEF752FFFFF740F869
:103CE000FFF718F8FEF7F4FFFEF704FFFFF754F8AC
:103CF00001220E490E48FEF7DFFA01220D490E4857
:103D0000FEF7DAFAFEF79EFD4FF47840FEF744FC2A
:103D100000F030F8FEF7C4FE00F04CF805E0FEF7C6
:103D200091FB4FF47A70FCF72BFFF8E72600002098
:103D30009001002029000020D801002070B5054620
:103D4000FFF74FFB48B9FFF74FFB30B90848006851
:103D5000022805D1FFF742FB10B16FF0050404E023
:103D6000002415B1284600F0CBFF204670BD0000AE
:103D70007C00002010B5FFF734FB48B9FFF734FB97
:103D800030B90B480068022805D1FFF727FB10B1B6
:103D90006FF0050409E00648006820B901200449D5
:103DA0000860002401E04FF0FF34204610BD000001
:103DB0007C00002010B5FFF714FB48B9FFF714FB97
:103DC00030B90C480068022805D1FFF707FB10B195
:103DD0006FF005040CE007480068012806D10220B6
:103DE0000449086001F008F8002401E04FF0FF34B6
:103DF000204610BD7C0000202DE9F04786B08046AB
:103E00008946144600200490FFF7EBFA00285DD1A4
:103E1000FFF7EAFA002859D12D480068022803D19B
:103E2000FFF7DCFA002851D1B8F1000F4ED0802600
:103E30001825002005900DF1140A471E44B3206890
:103E400008B1D4F800A0A06900B1A5692DB1382D42
:103E500003D8207900F0010018B1002006B0BDE8B9
:103E6000F087606908B160698608A06840B1E068C1
:103E70005C2805D3206918B1606908B1012708E002
:103E8000A06830B9E06820B9206910B9002700E0C7
:103E90000027012F0CD12169A0684B463246CDE99D
:103EA000005102905146404601F006FC04900DE09E
:103EB00067B904A8B2B24B465146CDE9005040461E
:103EC00001F0C8FB012801D0002004900498C5E748
:103ED0007C0000202DE9F04105460E461648076893
:103EE00016480068001D00F08BFD681C38B936B11B
:103EF00012480168091D124800F0D8FD1AE07C192B
:103F00000E4800684460BC4207D20C480168091D95
:103F10000C48006800F0B0FD0CE008480168091D7D
:103F20000948006800F0A8FD08480068844201D2F2
:103F300006480460BDE8F081400000202C0000200D
:103F40004808002034000020300000205C000020E1
:103F500010B5044600F0B6FD24480068401C234913
:103F600008602348006840B921480460084600689A
:103F700001280DD100F0F8F90AE01E48006838B9B0
:103F80001B480068C06AE16A884201D8184804608A
:103F900019480068401C18490860084600686064B9
:103FA0001649E06A0968884202D91449E06A086043
:103FB000E16A01EB8101124A02EB8100211D00F050
:103FC00075FD00F0A9FD0B48006868B1084800685D
:103FD000C06AE16A884207D24FF080500949086000
:103FE000BFF34F8FBFF36F8F10BD00003C00002068
:103FF0002C00002048000020580000204400002031
:104000009803002004ED00E008B500F05BFD1248C5
:104010000068E8B9114800F01FFD114800F01CFDD0
:104020000E48104908600E480F49086000200F4BE9
:104030000F4A102100900A2001F006F80649086096
:104040000846006820B10BA10348006800F01CFE80
:1040500000F062FD08BD0000700000205C08002038
:1040600070080020680000206C00002084080020F8
:10407000D4080020546D72510000000010B516E005
:1040800000F020FD0C48C068C468201D00F0B8FC9A
:104090000A480068401E0949086009480068401E37
:1040A0000749086000F038FD204600F05EF804483B
:1040B00000680028E4D110BD340800203C00002036
:1040C0003800002070B504460D46206C70B1216C9C
:1040D000E0680844E0606168E068884201D32068D5
:1040E000E0602846226CE168FCF79AF870BD2DE983
:1040F000F04104460F4615464FF00008A66B206CB1
:1041000040B9206860BB606801F0EAFB804600208F
:10411000606025E07DB93946226CA068FCF780F824
:10412000216CA0680844A060D4E90110884217D32C
:104130002068A06014E03946226CE068FCF770F853
:10414000216CE068401AE0602168E068884203D290
:10415000216C6068401AE060022D01D106B1761E24
:10416000701CA0634046BDE8F08110B5044694F889
:10417000590030B9206B00F0EDFC204600F0EAFC5D
:104180001AE094F85900012803D1204600F0E2FC1F
:1041900012E094F85900022801D1012000E000202B
:1041A00050B900BF502080F31188BFF34F8FBFF389
:1041B0006F8F00BF00BFFEE710BD00000146084A38
:1041C000126812680AB9012200E000220A600A6837
:1041D00022B9034A1268D268106800E000207047D4
:1041E0006800002030B54FF44063174800F0070422
:1041F0002CB1C01D20F00700134C041B1B1B0246F2
:10420000124C22600024114D6C60D018083820F048
:1042100007000F4C206000240D4D2D686C600C4D84
:104220002D682C601146441A4C60094C24680C60BF
:10423000084D4C682C60084D4C682C604FF00044D1
:10424000064D2C6030BD00002C10002080000020A6
:1042500088000020900000208C00002094000020A6
:1042600000BFFFF70BFF064800680128F9D94FF09F
:10427000805004490860BFF34F8FBFF36F8FF0E7A2
:104280009803002004ED00E02DE9F04106460D46BC
:1042900017469846069C0DB9246000E02760E66347
:1042A00025640121204600F03FFF84F84C80BDE8E2
:1042B000F0812DE9F05F82460F4690469B460A9EAC
:1042C0000C9C4FEA8801A522206BFBF7BBFFA8F1ED
:1042D0000100216B01EB800929F0070909F00700B3
:1042E00008B9012000E0002050B900BF502080F341
:1042F0001188BFF34F8FBFF36F8F00BF00BFFEE782
:10430000002507E0795D04F134004155785D00B97E
:1043100002E06D1C102DF5D300BF00214320015594
:10432000382E00D33726E662E66400202065201D83
:1043300000F09FFB04F1180000F09BFB2461C6F124
:104340003800A06164620020606584F858005A4615
:104350005146484600F042FB20600B9808B10B988C
:104360000460BDE8F09F000010B5002407E004EBF6
:1043700084010F4A02EB810000F06EFB641C382CB4
:10438000F5D30C4800F068FB0B4800F065FB0B48C8
:1043900000F062FB0A4800F05FFB0A4800F05CFB9B
:1043A00004480949086004480849086010BD000035
:1043B00098030020F80700200C08002020080020A7
:1043C000340800204808002030000020340000207D
:1043D00010B50146164800E0006803688B42FBD325
:1043E0000246436813448B4204D143684C6823441B
:1043F000436001460A464B6813440468A34211D146
:104400000C4C03682468A34208D04B6804686468B5
:1044100023444B6003681B680B6005E0054B1B6879
:104420000B6001E003680B60884200D0016010BDA2
:1044300080000020880000202DE9F04104460D4650
:1044400016461F464FF0000865602461B5420CD83F
:10445000F01BA169884202D34FF0010811E0211D31
:104460000948006800F008FB0BE0BE4204D2BD42E0
:1044700002D34FF0010804E0211D0448006800F059
:10448000FBFA4046BDE8F0816C0000206800002087
:1044900070B5054600F016FBA86B08B9012400E0D2
:1044A000002400F039FB204670BD70B5054600F0D1
:1044B00009FBA86BE96B884201D1012400E00024CC
:1044C00000F02AFB204670BDF8B505460F46164899
:1044D0000068C068C468201D00F092FAE0690128F5
:1044E0001DD1A06941192B463A462046FFF7A4FF8B
:1044F000A8B1002003462A4601460090204601F05C
:104500004BFB064656B900BF502080F31188BFF31D
:104510004F8FBFF36F8F00BF00BFFEE700BF204685
:10452000616A8847F8BD000068000020F0B587B0D8
:1045300082E00398002811DA04AE56B900BF50207B
:1045400080F31188BFF34F8FBFF36F8F00BF00BFA1
:10455000FEE7D6E90020B168904700BF0398002825
:104560006ADB059C606908B9012000E0002010B9F1
:10457000201D00F045FA02A800F0C0F80546039897
:104580000A2857D2DFE800F009050731334F060843
:10459000323400BF00BF00BF00BF0498A269811879
:1045A00003462A462046FFF747FFE8B12046616AE6
:1045B0008847E069012817D1002000900498A1697C
:1045C000421800231946204601F0E6FA074657B97B
:1045D00000BF502080F31188BFF34F8FBFF36F8F60
:1045E00000BF00BFFEE700BF25E000BF23E000BF23
:1045F0000498A061A06908B1012000E0002050B932
:1046000000BF502080F31188BFF34F8FBFF36F8F2F
:1046100000BF00BFFEE7A06941192B462A4620468D
:10462000FFF70AFF07E094F82C0010B9204600F0CD
:1046300091FA00E000BF00BF002203A9044800680F
:1046400000F00EFF00287FF474AF07B0F0BD00004B
:1046500070000020F8B505460C4600F029FC6846BD
:1046600000F04CF80646009820BB44B9B54206D885
:1046700001F0D4F931462846FFF726FF1CE03CB193
:104680000E480068006808B9012000E000200446D8
:10469000A91B22460A48006800F00CFB01F0BEF995
:1046A00050B94FF0805007490860BFF34F8FBFF3F8
:1046B0006F8F01E001F0B2F9F8BD00006C0000203E
:1046C0007000002004ED00E00A490968096809B992
:1046D000012100E0002121B14FF0FF31064A1160B5
:1046E00006E004490968C968C868034A416811605E
:1046F00070470000300000205C00002070B50446C8
:1047000001F046F8054607480068854204D200F0EB
:104710000BF80120206001E00020206001480560C6
:10472000284670BD780000202DE9F84332E0244887
:104730000068C068056822480068C068C468201D19
:1047400000F05EF92046616A8847E069012821D1BE
:10475000A0694619AE4207D966602461211D184838
:10476000006800F089F915E0002003462A4601465A
:104770000090204601F010FA074657B900BF5020BC
:1047800080F31188BFF34F8FBFF36F8F00BF00BF5F
:10479000FEE700BF0A480068006808B9012000E091
:1047A00000200028C3D00648D0F8008005480068E3
:1047B000034908600348C0F80080BDE8F8830000A2
:1047C000680000206C0000200E480068401C08B9FA
:1047D000012000E0002050B900BF502080F3118874
:1047E000BFF34F8FBFF36F8F00BF00BFFEE700BF67
:1047F000502080F31188BFF34F8FBFF36F8F00BF3E
:1048000000BFFEE79800002008B500BF6846FFF72C
:10481000D5FC044620460099FFF71CFFFFF786FEF3
:10482000F4E770B5044600F04DF994F9455010E0F6
:10483000606A08B9012000E0002038B904F12400C2
:1048400001F0A0F818B100F095FA00E003E0681E4E
:1048500045B2002DECDC00BFFF2084F8450000F0DD
:104860005BF900F02FF994F9445010E0206908B981
:10487000012000E0002048B904F1100001F082F8A6
:1048800008B100F077FA681E45B200E001E0002DA3
:10489000ECDC00BFFF2084F8440000F03DF970BD5F
:1048A0002DE9F04104464FF0000800F001FB4648B6
:1048B000006808B9FFF796FC4448006820400028CB
:1048C0006BD1D4B1083404F00700B0B104F0070094
:1048D000C0F10800044404F0070008B9012000E01A
:1048E000002050B900BF502080F31188BFF34F8FD4
:1048F000BFF36F8F00BF00BFFEE7002C4DD03448E0
:104900000068844249D8334E3046056801E02E469F
:104910002D686868A04202D228680028F7D12A488A
:104920000068854239D0306800F108082868306096
:104930006868001B102819D92F1907F0070008B95B
:10494000012000E0002050B900BF502080F3118802
:10495000BFF34F8FBFF36F8F00BF00BFFEE76868E4
:10496000001B78606C603846FFF732FD18496868B4
:104970000968081A16490860084600681649096857
:10498000884203D212480068134908600F496868DA
:104990000968084368600020286001F03FF808F0CB
:1049A000070008B9012000E0002050B900BF5020E6
:1049B00080F31188BFF34F8FBFF36F8F00BF00BF2D
:1049C000FEE74046BDE8F08188000020940000200A
:1049D0008C0000208000002090000020001F4FF07D
:1049E00080730360001F21F001030360001F034B6D
:1049F000036014380260203870470000C94700087F
:104A000001460A69D1E901309860D1E90103586093
:104A10005068884201D188685060002008611068A1
:104A2000401E106010687047034B0360034B0B601F
:104A3000802313607047000074090020D009002013
:104A4000034B0360034B0B604FF48073136070479C
:104A5000D00B00202C0C002000F1080141604FF029
:104A6000FF31816000F10801C16001610021016036
:104A7000704700210161704710B502460B685C1C4D
:104A80000CB9106907E002F1080000E040684468D2
:104A900024689C42FAD944684C604C68A1608860E4
:104AA00041600A611468641C146010BD42684A6069
:104AB00093688B60936859609160086103685B1C20
:104AC0000360704700BF502080F31188BFF34F8F01
:104AD000BFF36F8F00BF0E480068401C0C49086090
:104AE00008460068012812D10A480068C0B208B917
:104AF000012000E0002050B900BF502080F3118851
:104B0000BFF34F8FBFF36F8F00BF00BFFEE770474B
:104B10009800002004ED00E00D48006850B900BF87
:104B2000502080F31188BFF34F8FBFF36F8F00BF0A
:104B300000BFFEE706480068401E054908600846B9
:104B4000006820B9002080F3118800BF00BF7047C3
:104B50009800002070B506463546002E3FD0083D2F
:104B60002C461F4960680968084008B1012000E030
:104B7000002050B900BF502080F31188BFF34F8F41
:104B8000BFF36F8F00BF00BFFEE7206808B90120A8
:104B900000E0002050B900BF502080F31188BFF31F
:104BA0004F8FBFF36F8F00BF00BFFEE70C496068F7
:104BB0000968084098B1206888B90949606809689F
:104BC0008843606000F074F9064960680968084429
:104BD000044908602046FFF7FBFB00F01FFF70BD93
:104BE000940000208C00002000204FF0E02108619C
:104BF0008861064800684FF47A71B0FBF1F0401EFE
:104C00004FF0E02148610720086170472000002034
:104C100070B5FBF7DFFA0446102C16D304F1E02040
:104C200090F8F05315480078854201DB012000E040
:104C3000002050B900BF502080F31188BFF34F8F80
:104C4000BFF36F8F00BF00BFFEE70D48006800F4A0
:104C5000E0600C490968884201D8012000E000208A
:104C600050B900BF502080F31188BFF34F8FBFF3BE
:104C70006F8F00BF00BFFEE770BD00009C000020EA
:104C80000CED00E0A0000020024600200BE0084BE5
:104C900053F8303033B9064B43F8301003EBC00300
:104CA0005A6002E0401C0828F1D300BF70470000A2
:104CB000580300202DE9F04105460E4617462C46C4
:104CC000FFF700FF94F94400401C10B9002084F85D
:104CD000440094F94500401C10B9002084F84500B8
:104CE000FFF71AFFA06B28B93A46314604F12400B9
:104CF00000F062F82046FFF794FDBDE8F081000067
:104D000070B504460025D4B11248006808B90120E6
:104D100000E0002050B900BF502080F31188BFF39D
:104D20004F8FBFF36F8F00BF00BFFEE700F0C0F8EA
:104D300000212046FFF7CEF800F070FE05463DB991
:104D40004FF0805004490860BFF34F8FBFF36F8F5F
:104D500070BD00006400002004ED00E00349096814
:104D60000160034909684160704700005400002059
:104D700040000020012001490860704750000020D9
:104D800070B504460D4654B900BF502080F3118819
:104D9000BFF34F8FBFF36F8F00BF00BFFEE7054823
:104DA000016818312046FFF767FE01212846FFF70A
:104DB00091F870BD2C00002070B505460E461446D3
:104DC00055B900BF502080F31188BFF34F8FBFF358
:104DD0006F8F00BF00BFFEE7064801681831284604
:104DE000FFF764FE0CB14FF0FF3621463046FFF767
:104DF00071F870BD2C00002010B586B00020059021
:104E0000049003AA04A905A8FFF70EFE0022DDE91D
:104E100004101346CDE9002102901EA11F48039AF9
:104E200000F04AFC1E4908600846006808B10124E9
:104E300000E00024012C02D100F072FE0446012C97
:104E400015D100BF502080F31188BFF34F8FBFF3FF
:104E50006F8F00BF4FF0FF301249086001201249E8
:104E6000086000201149086000F072F810E0601C32
:104E700008B1012000E0002050B900BF502080F3AD
:104E80001188BFF34F8FBFF36F8F00BF00BFFEE7E6
:104E900006B010BD49444C450000000061420008C6
:104EA000600000205C00002048000020400000203E
:104EB00002480068401C01490860704764000020F7
:104EC0001E48006818B101201D49086034E0002028
:104ED0001B4908601B4801680CE051B900BF502015
:104EE00080F31188BFF34F8FBFF36F8F00BF00BFF8
:104EF000FEE7491E01EB8100134A52F8200008B971
:104F0000012000E000200028E7D101EB81020E4BD8
:104F100003EB820042685268426000F10802436875
:104F2000934202D14268526842604268D268074B9D
:104F30001A600448016000BF704700006400002050
:104F40005000002044000020980300202C00002086
:104F50001CB53849084600780190FF200A461070B9
:104F60000846007800909DF8000000F0F0009DF8E1
:104F70000020904201D1012000E0002050B900BF84
:104F8000502080F31188BFF34F8FBFF36F8F00BFA6
:104F900000BFFEE79DF8000000F05000264A1070A8
:104FA0000720264A106009E024480068401E234A72
:104FB00010609DF800004006000E00909DF8000073
:104FC00000F080008028EFD01C480068C0F1070086
:104FD000042801D1012000E0002050B900BF50207A
:104FE00080F31188BFF34F8FBFF36F8F00BF00BFF7
:104FF000FEE7124800680002104A10601046008860
:1050000000F4E06010600B4A019810700C480068D2
:1050100040F470000A4908600846006840F070409B
:105020000860FFF7E1FD002006490860FBF79CF8E7
:1050300000201CBD00E400E09C000020A000002037
:1050400020ED00E0980000202DE9F84380460E4650
:1050500017461D46DDF82090B8F1000F01D0012061
:1050600000E0002050B900BF502080F31188BFF34A
:105070004F8FBFF36F8F00BF00BFFEE70DB1012060
:1050800000E0002050B900BF502080F31188BFF32A
:105090004F8FBFF36F8F00BF00BFFEE707B10EB1A8
:1050A000012000E0002050B900BF502080F311889B
:1050B000BFF34F8FBFF36F8F00BF00BFFEE707B98D
:1050C0000EB9012000E0002050B900BF502080F34D
:1050D0001188BFF34F8FBFF36F8F00BF00BFFEE794
:1050E000502000900098502801D1012000E00020BD
:1050F00050B900BF502080F31188BFF34F8FBFF32A
:105100006F8F00BF00BFFEE72C464CB1012084F832
:1051100046004B463A46314640460094FFF7B4F805
:105120002046BDE8F883000070B505460E462C46C3
:1051300054B900BF502080F31188BFF34F8FBFF3E5
:105140006F8F00BF00BFFEE7FFF7BCFCD4E90F1272
:10515000206801FB020060600020A0632068A0605E
:10516000E06B401E226C216800FB0210E060FF2013
:1051700084F8440084F845009EB9206908B90120EC
:1051800000E00020A8B904F1100000F0FBFB80B1A2
:105190004FF0805009490860BFF34F8FBFF36F8F06
:1051A00007E004F11000FFF757FC04F12400FFF7BB
:1051B00053FCFFF7B1FC012070BD000004ED00E0DE
:1051C0002DE9FF4383B0064688461D464FF000098F
:1051D000344654B900BF502080F31188BFF34F8F7D
:1051E000BFF36F8F00BF00BFFEE7B8F1000F01D122
:1051F000206C08B9012000E0002050B900BF502009
:1052000080F31188BFF34F8FBFF36F8F00BF00BFD4
:10521000FEE7022D02D1E06B012801D1012000E060
:10522000002050B900BF502080F31188BFF34F8F8A
:10523000BFF36F8F00BF00BFFEE700F099FA08B917
:10524000059808B9012000E0002050B900BF5020A7
:1052500080F31188BFF34F8FBFF36F8F00BF00BF84
:10526000FEE700BFFFF72EFCA06BE16B884201D385
:10527000022D28D12A4641462046FEF738FF074630
:10528000606A08B9012000E0002068B904F1240038
:1052900000F078FB88B14FF0805032490860BFF3CE
:1052A0004F8FBFF36F8F08E03FB14FF080502D4913
:1052B0000860BFF34F8FBFF36F8FFFF72DFC012006
:1052C00007B0BDE8F083059818B9FFF725FC00206A
:1052D000F6E7B9F1000F04D101A8FFF73FFD4FF049
:1052E0000109FFF719FCFFF7E3FDFFF7EBFB94F96A
:1052F0004400401C10B9002084F8440094F9450093
:10530000401C10B9002084F84500FFF705FC05A9F2
:1053100001A800F059F9F0B92046FFF7C6F8A0B18E
:1053200004F110000599FFF72BFD2046FFF779FAED
:1053300000F074FB002895D14FF0805009490860B7
:10534000BFF34F8FBFF36F8F8CE72046FFF769FAEB
:1053500000F064FB86E72046FFF763FA00F05EFB8F
:105360000020ADE704ED00E02DE9F05F07468A4636
:1053700090461E463C4654B900BF502080F3118829
:10538000BFF34F8FBFF36F8F00BF00BFFEE7BAF1CF
:10539000000F01D1206C08B9012000E0002050B9B5
:1053A00000BF502080F31188BFF34F8FBFF36F8F82
:1053B00000BF00BFFEE7022E02D1E06B012801D141
:1053C000012000E0002050B900BF502080F3118878
:1053D000BFF34F8FBFF36F8F00BF00BFFEE7FFF734
:1053E00017FC00BF5021EFF3118081F31188BFF348
:1053F0004F8FBFF36F8F00BF0546A06BE16B8842F4
:1054000001D3022E23D194F945B0324651462046AD
:10541000FEF76DFE0BF1010088B9606A08B9012042
:1054200000E0002080B904F1240000F0ABFA58B18C
:10543000B8F1000F08D00120C8F8000004E00BF11B
:10544000010040B284F845004FF0010901E04FF03F
:10545000000900BF85F3118800BF4846BDE8F09FF2
:105460002DE9F74183B005460E464FF000082C4663
:1054700054B900BF502080F31188BFF34F8FBFF3A2
:105480006F8F00BF00BFFEE70EB9206C08B9012086
:1054900000E0002050B900BF502080F31188BFF316
:1054A0004F8FBFF36F8F00BF00BFFEE700F060F9C2
:1054B00008B9059808B9012000E0002050B900BFE4
:1054C000502080F31188BFF34F8FBFF36F8F00BF61
:1054D00000BFFEE700BFFFF7F5FAA76BF7B1314653
:1054E0002046FEF7EFFD781EA063206908B9012071
:1054F00000E0002060B904F1100000F043FA38B178
:105500004FF080502F490860BFF34F8FBFF36F8F6C
:10551000FFF702FB012006B0BDE8F081059818B93D
:10552000FFF7FAFA0020F6E7B8F1000F04D101A85E
:10553000FFF714FC4FF00108FFF7EEFAFFF7B8FC95
:10554000FFF7C0FA94F94400401C10B9002084F819
:10555000440094F94500401C10B9002084F845002F
:10556000FFF7DAFA05A901A800F02EF8F0B92046F5
:10557000FEF78EFFA0B104F124000599FFF700FCAF
:105580002046FFF74EF900F049FA0028A3D14FF06A
:1055900080500C490860BFF34F8FBFF36F8F9AE7BD
:1055A0002046FFF73EF900F039FA94E72046FFF76E
:1055B00038F900F033FA2046FEF76AFF00288AD057
:1055C0000020A8E704ED00E070B505460C4655B98B
:1055D00000BF502080F31188BFF34F8FBFF36F8F50
:1055E00000BF00BFFEE754B900BF502080F3118810
:1055F000BFF34F8FBFF36F8F00BF00BFFEE7FFF712
:1056000061FA124802686868131A2068401C08B9D9
:10561000002617E00E4928680968884204D06868A7
:10562000904201D801260DE02068984207D92068F1
:10563000C01A20602846FFF791FB002602E00020F8
:1056400020600126FFF768FA304670BD4000002058
:10565000540000202DE9FF4F85B08046894617464B
:10566000DDE912ABB800FFF71BF9064656B15C2026
:10567000FFF716F904460CB1266304E03046FFF745
:1056800069FA00E000248CB1002084F85900CDE9CB
:1056900000ABCDE902403A4649464046089BFEF73A
:1056A00008FE2046FEF754FC012501E04FF0FF35CF
:1056B000284609B0BDE8F08F2DE9F04F85B00746C8
:1056C000884691469A46DDE90EB6109C0EB101203F
:1056D00000E0002050B900BF502080F31188BFF3D4
:1056E0004F8FBFF36F8F00BF00BFFEE70CB10120EB
:1056F00000E0002050B900BF502080F31188BFF3B4
:105700004F8FBFF36F8F00BF00BFFEE75C20039099
:1057100003985C2801D1012000E0002050B900BFAF
:10572000502080F31188BFF34F8FBFF36F8F00BFFE
:1057300000BFFEE7B4B1AEB125462C462E63022071
:1057400085F85900002004A953464A46CDE900B126
:10575000CDE9025041463846FEF7ABFD2846FEF73C
:10576000F7FB01E000200490049805B0BDE8F08F3D
:105770000549096809B9012005E00449096809B922
:10578000022000E000207047480000206400002054
:105790000149086870470000400000202DE9F041F1
:1057A0004FF0000843480068002876D1424800685E
:1057B000451C4148056015BB40480068006808B9B1
:1057C000012000E0002050B900BF502080F3118874
:1057D000BFF34F8FBFF36F8F00BF00BFFEE73748A7
:1057E000076837480068354908603548076035481C
:1057F0000068401C33490860FEF766FF00BF32486E
:10580000006885423BD300BF2C480068006808B997
:10581000012000E0002020B14FF0FF302A4908604D
:105820002CE026480068C068C4686668B54202D2A9
:105830002548066022E0201DFFF7E2F8A06A18B1B3
:1058400004F11800FFF7DCF82049E06A0968884293
:1058500002D91E49E06A0860E16A01EB81011C4A35
:1058600002EB8100211DFFF721F91A49E06A09685E
:10587000C96A8842C8D34FF00108C5E700BF154880
:105880000068C06A00EB8000114951F8200001282F
:1058900001D94FF0010805E0FFE70F480068401C00
:1058A0000D4908600D48006808B14FF001084046F6
:1058B000BDE8F0816400002040000020300000209E
:1058C00034000020540000205C0000204400002030
:1058D000980300202C0000204C00002050000020E5
:1058E00070B505462C460026002D43D0224800689E
:1058F000844201D1012000E0002050B900BF5020B7
:1059000080F31188BFF34F8FBFF36F8F00BF00BFCD
:10591000FEE7206D50B900BF502080F31188BFF31F
:105920004F8FBFF36F8F00BF00BFFEE7206D401E9B
:105930002065E16CE06A88421CD0206DD0B9201D42
:10594000FFF75EF8E06CE062E06AC0F13800A06149
:105950000A49E06A0968884202D90849E06A086091
:10596000E16A01EB8101064A02EB8100211DFFF78C
:105970009DF80126304670BD2C0000204400002018
:105980009803002070B50646F068C46854B900BF9B
:10599000502080F31188BFF34F8FBFF36F8F00BF8C
:1059A00000BFFEE704F11800FFF72AF81548006869
:1059B000A0B9201DFFF724F81349E06A096888425E
:1059C00002D91149E06A0860E16A01EB81010F4ADE
:1059D00002EB8100211DFFF769F804E004F11801D2
:1059E0000B48FFF763F80B49E06A0968C96A884207
:1059F00004D9012501200849086000E00025284657
:105A000070BD0000640000204400002098030020C6
:105A1000200800202C0000205000002070B5002439
:105A200000263648006850B900BF502080F3118826
:105A3000BFF34F8FBFF36F8F00BF00BFFEE7FFF7CD
:105A400041F82E480068401E2C490860084600684E
:105A500000284ED12A48006800284AD023E029486F
:105A6000C068C46804F11800FEF7CAFF201DFEF7E5
:105A7000C7FF2549E06A0968884202D92249E06ADD
:105A80000860E16A01EB8101204A02EB8100211DDF
:105A9000FFF70CF81E49E06A0968C96A884202D318
:105AA00001201C4908601748006808B9012000E07F
:105AB00000200028D3D00CB1FEF706FE164805687A
:105AC00065B100BFFFF76AFE10B1012011490860FF
:105AD0006D1E002DF6D100200F4908600D480068AA
