:020000040800F2
:1000000070C30020DD010008E53700082724000840
:10001000E1370008C30F00084B4D00080000000046
:100020000000000000000000000000004501000882
:10003000051200080000000089010008554400086E
:10004000F7010008F7010008F7010008E13C00088B
:10005000F7010008F701000819210008F70100085E
:10006000F7010008F701000831210008F701000836
:10007000F7010008F7010008F7010008F701000880
:10008000F7010008F7010008F7010008F701000870
:10009000F7010008F7010008F701000849210008EE
:1000A000F7010008F7010008F7010008F701000850
:1000B000F7010008F7010008F7010008F701000840
:1000C000F7010008F7010008F7010008F701000830
:1000D000F7010008E9490008C54A00082D4B00084F
:1000E000F7010008F7010008F7010008F701000810
:1000F000F7010008F7010008F7010008F701000800
:10010000F7010008F7010008F7010008F7010008EF
:100110003D490008F7010008E9440008714500085E
:10012000F7010008F7010008F7010008F7010008CF
:10013000DFF80CD000F018FD00480047F1E9010895
:1001400070C30020224B19680868B0E8F00F80F3F4
:100150000988BFF36F8F4FF0000080F311884EF0D5
:100160000D0E70470000000006480068006880F32C
:10017000088862B661B6BFF34F8FBFF36F8F00DFA1
:1001800000BF00BF08ED00E0EFF30980BFF36F8F01
:100190000F4B1A6820E9F00F106008B54FF0BF0050
:1001A00080F31188BFF34F8FBFF36F8F27F06AF88A
:1001B0004FF0000080F31188BDE808401968086816
:1001C000B0E8F00F80F30988BFF36F8F704700BF6E
:1001D00080010020EFF3058070470000064880474B
:1001E00006480047FEE7FEE7FEE7FEE7FEE7FEE71C
:1001F000FEE7FEE7FEE7FEE789440008310100085C
:100200002DE9F05F0546002092469B46884606464B
:10021000814640241BE0284641464746224600F0DE
:1002200050FB53465A46C01A914110D31146184606
:10023000224600F037FB2D1A67EB01084F46224695
:100240000120002100F02EFB17EB00094E41201E7B
:10025000A4F10104DFDC484631462A464346BDE8A6
:10026000F09F000038B5D0E90221491E01EB4101A1
:1002700002EBC1014268C1EB011102EB810102688E
:10028000C1EB011102EB8102D0E9043101EB410124
:1002900003EB81013023A1F5527191FBF3F4174D6B
:1002A0006C4302EBC41291FBF3F403FB14110092B4
:1002B0001A2902DB124B1A4400920C2291FBF2F332
:1002C000104C6343009C04EBC313009391FBF2F3C7
:1002D00002FB13110C4A08E0491E40F2A324535CB0
:1002E0006343009C04EBC31300930029F4DC014634
:1002F000684600F00FFB009838BD00003F0C0F006F
:100300008051010067C20300C05F070840EA010393
:100310009B0703D009E008C9121F08C0042AFAD2BB
:1003200003E011F8013B00F8013B521EF9D270477F
:10033000D2B201E000F8012B491EFBD27047002227
:10034000F6E710B513460A4604461946FFF7F0FFD4
:10035000204610BD30B505462A460B4612F8010B63
:1003600013F8014B08B1A042F8D01CB1002802D00C
:100370006D1CF1E7284630BDCAB2401E10F8011FBF
:100380008A4202D00029F9D100207047421C10F89F
:10039000011B0029FBD1801A704710B5002200E034
:1003A000521C835C8C5CA34201D1002BF8D1D8B2E3
:1003B000E1B2401A10BD30B504460020034600E00B
:1003C0005B1C934203D2E05CCD5C401BF8D030BD97
:1003D000034611F8012B00F8012B002AF9D1184629
:1003E000704770B5064604F06BFD046805460A22A6
:1003F0000021304600F0D4FA2C6070BD2DE9FE4F8C
:10040000804681EA0300C00F0C46009021F00041B5
:1004100023F00045B8EB0200A94105D24046214631
:1004200090461C460B46024623F00040104347D03E
:10043000270DC7F30A00C3F30A510290401A019036
:1004400040286BDAC3F3130040F4801B00989246F7
:1004500020B10023D2EB030A63EB0B0B0198594642
:10046000C0F14002504600F01DFA06460D465046C7
:100470005946019A00F035FA10EB0800614100245A
:1004800087EA115284EAE7731A4340D0009A62B3B4
:10049000019A012A4FEA075215DC001B61EB0201A9
:1004A0004FF0004202EA0752CDE90042001C41F53C
:1004B000801132462B4600F0F1FA03B0BDE8F08F10
:1004C00040462146F9E7001B61EB0201001C41F5A3
:1004D000801300185B412018A2F5001747EB0301B9
:1004E00040EAD570B6196D4111E06D084FEA360645
:1004F00045EAC0754FEA0752001B61EB0201001C80
:1005000041F5801149084FEA300000195141324647
:100510002B4603B0BDE8F04F00F0B1BA00980122BD
:1005200040000023D0EB020263EBE0730098214609
:100530004FEAE074B8EB000061EB0401E9E783F0F7
:1005400000435BE781F0004158E72DE9FE4F81EA67
:10055000030404F0004421F0004100944FF0000B2C
:1005600023F0004350EA01045ED052EA03045BD05A
:10057000C3F30A54C1F30A552C44A4F2F334019492
:10058000A0FB0254C1F3130141F48011C3F3130320
:1005900043F4801301FB024400FB034E840A970AD4
:1005A00044EA815447EA8357A4FB076802958D0A01
:1005B00005FB07854FEA932C04FB0C542705029D8D
:1005C0004FEA065847EA1637B5EB08056EEB070CFD
:1005D000870E920E47EA811742EA8312A7FB0201B7
:1005E000B6EB0B0164EB00042B0D43EA0C335E18F1
:1005F00044EB1C50DA465146E7FB0201C5F31304F5
:100600004FEA0B3343EA14534FEA0432019C43EAA6
:100610000603A4F10C040294009CCDE900B400F0A0
:100620003DFA03B0BDE8F08F00200146F9E72DE95F
:10063000F04D81EA030404F0004B21F0004514461C
:100640004FF0000A23F0004150EA050220D054EA9E
:1006500001021DD0C5F30A570246C5F31303C1F3C7
:100660001300C1F30A5640F4801543F48013A7EB3E
:100670000608101BD64608F2FD3873EB050002D3BE
:1006800008F1010801E092185B41B8F1000F03DAAC
:1006900000200146BDE8F08D00204FF48011064691
:1006A00084460EE0171B73EB050705D3121B63EBA3
:1006B000050306434CEA010C49084FEA3000921842
:1006C0005B4150EA0107EDD152EA030012D082EA01
:1006D000040083EA0501084305D0101BAB4106D294
:1006E0000122002306E000224FF0004302E06FF0F9
:1006F000010253101AEB06004CEB085110EB0A00F4
:1007000041EB0B01BDE8F04D00F0B9B90EB5C10FDA
:1007100080EAE0700844CA07002140F233438DE8C4
:100720000E000A460B4600F0B9F903B000BD0EB545
:1007300040F2334102910021CDE900110A460B46F7
:1007400000F0ACF903B000BD70B5C1F30A5201F07E
:1007500000450024C1F3130140F2FF3341F480113E
:100760009A4201DA002070BD40F233439A42A2F26D
:10077000334203DC524200F0A4F800E090402C43E6
:10078000F1D0404270BDC1F30A5210B5C1F313015C
:1007900040F2FF3341F480119A4201DA002010BD8B
:1007A00040F233439A42A2F2334203DC524200F059
:1007B00088F810BD904010BD00F0004230F00040BD
:1007C0000AD0C10D01F56071C0F3160042EA015173
:1007D000C2084007114370470020014670470000DF
:1007E00030B5041E71F1000404DB4FF000444042B8
:1007F00064EB0101141E73F1000405DB1C464FF08D
:100800000043524263EB04038B4208BF824230BD77
:1008100030B5041E71F1000404DB4FF00044404287
:1008200064EB0101141E73F1000405DB1C464FF05C
:100830000043524263EB0403994208BF904230BD2B
:1008400001F0004330B421F0004150EA010206D02B
:100850000A0DA2F56072C1F31301002A02DC30BC5C
:1008600000207047440F44EAC104C100E01830BCC6
:1008700000EBC25000F0CCB830B50B46014600206A
:100880002022012409E021FA02F59D4205D303FA52
:1008900002F5491B04FA02F52844151EA2F10102D3
:1008A000F1DC30BD202A04DB203A00FA02F10020FE
:1008B00070479140C2F1200320FA03F3194390409E
:1008C0007047202A04DB203A21FA02F00021704709
:1008D00021FA02F3D040C2F12002914008431946A8
:1008E0007047202A06DBCB17203A41FA02F043EA90
:1008F000E07306E041FA02F3D040C2F120029140D9
:100900000843194670470000014900F003B8000091
:1009100040BF002010B500683C22B0FBF2F302FBA0
:100920001303B0FBF2F00B60B0FBF2F302FB130316
:10093000B0FBF2F018224B60B0FBF2F302FB1303A2
:10094000B0FBF2F0021D8B600723B2FBF3F403FB54
:100950001422800040F2B55300F66C308A61B0FB7F
:10096000F3F2B0FBF3F403FB1400443280084A6155
:10097000C8613B2802D3920700D0401C0022074CDC
:1009800013460A61E25C824203D8801A5B1C0B6149
:10099000F8E7401CC860084610BD0000CC5F07089F
:1009A0002DE9F04791460F4680460446002614F88C
:1009B000015B2DB100F0EAF80068405DC007F6D198
:1009C0002B2D02D02D2D18D0641E4A4639462046C4
:1009D00000F0E0F827B13968A14201D1C7F80080E2
:1009E00071054FF002040BD54042002803DD04F0EE
:1009F00067FA0460A007BDE8F08746F48066E4E784
:100A00000028F8DA04F05CFA04606FF00040F2E7C6
:100A10000029A8BF7047401C490008BF20F0010012
:100A2000704710B4B0FA80FC00FA0CF050EA0104F0
:100A300004BF10BC704749B1CCF1200421FA04F482
:100A400011FA0CF118BF012121430843A3EB0C015B
:100A5000CB1D4FEA00614FEA102042BF002010BCBE
:100A6000704700EBC35010440029A4BF10BC70476E
:100A7000401C490008BF20F0010010BC704710B5B1
:100A8000141E73F1000408DA401C41F100019218B1
:100A90005B411A4301D120F0010010BD2DE9F04D5A
:100AA00092469B4611B1B1FA81F202E0B0FA80F2AF
:100AB00020329046FFF7F6FE04460F4640EA0A0051
:100AC00041EA0B0153465A46084313D0114653EAF4
:100AD000010019D0C8F140025046FFF7F2FE05466A
:100AE0000E46504659464246FFF7DCFE084305D005
:100AF000012004E020463946BDE8F08D0020054382
:100B000046EAE0762C4337430A986305E40AA0EBF3
:100B100008000022FD0A44EA47540A3002D50020AA
:100B20000146E9E7010510196941DDE908450019A9
:100B30006941BDE8F04DA2E7C1F30A52C1F31301C8
:100B400040F2FF3341F480119A4202DA002001465C
:100B5000704740F233439A42A2F2334202DC5242DF
:100B6000FFF7AFBEFFF79EBE064C074D06E0E068FC
:100B700040F0010394E8070098471034AC42F6D3E4
:100B8000FFF7DAFA84630708A46307080048704790
:100B90005C6007082DE9F05F824600780027154663
:100BA0008B460AF10104B946302801D09DB113E00B
:100BB00014F8010B0127782803D0582801D045B13B
:100BC0000AE00DB1102D07D10027102514F8010BF4
:100BD00002E0082500E00A250026B0460EE005FBED
:100BE000080005FB06F1012701EB10461FFA80F80B
:100BF000B6F5803F00D3B94614F8010B294600F042
:100C000018F80028EBDABBF1000F05D00FB1641E15
:100C100000E05446CBF80040B9F1000F06D004F0D4
:100C20004FF902210160C81EBDE8F09F48EA064066
:100C3000FAE73A2800D2303820F02002412A01D3C6
:100C4000A2F13700884201D34FF0FF30704770B5F2
:100C50008C1810F8015B15F0070301D110F8013B67
:100C60002A1106D110F8012B03E010F8016B01F8EE
:100C7000016B5B1EF9D12B0705D40023521E0DD446
:100C800001F8013BFAE710F8013BCB1A921C03E094
:100C900013F8015B01F8015B521EF9D5A142D8D3CC
:100CA000002070BD21B1826842F00102826003E041
:100CB000826822F0010282607047000000B587B0B0
:100CC0000121042002F0A6FE0121102002F0A2FE64
:100CD000002006908DF81B002020ADF8180006A912
:100CE000204801F0FAFA0220ADF8180006A91E48C3
:100CF00001F0F3FA0121480202F08CFE4FF40040AB
:100D000002F05CFE142101A8FFF719FB00208DF80A
:100D1000090004904FF4602003900020019001200E
:100D20008DF8140000208DF8080001A90F4800F08C
:100D30005DF801210D48FFF7B5FF0C4800F0DAF827
:100D400000BF0A4800F02BF80028FAD1074800F04D
:100D5000E1F800BF054800F00BF80028FAD107B011
:100D600000BD0000000801400010014000240140C7
:100D7000014600208A6802F004020AB1012000E066
:100D8000002070470146C86C80B2704702460020C0
:100D900013680B400BB1012000E0002070470146B2
:100DA00000208A6802F008020AB1012000E0002059
:100DB0007047000010B5032301220B21094800F001
:100DC0003DF80121074800F09AF800BF02210548CC
:100DD000FFF7DCFF0028F9D00248FFF7D3FF0249F4
:100DE000088010BD002401401201002030B50246E9
:100DF0000020002350680F4C20400D790C6844EA15
:100E000005242043506090680B4C2040D1E90254E7
:100E10002C434D7944EA450420439060D06A20F485
:100E200070000C7C641EE4B2234340EA0350D0629D
:100E300030BD0000FFFEF0FFFDF7F1FFF0B5044606
:100E40000D4600200021092D11DDE068A5F10A06FC
:100E500006EB4607072606FA07F18843A5F10A06BE
:100E600006EB460603FA06F10843E0600CE0206951
:100E700005EB4507072606FA07F1884305EB45060B
:100E800003FA06F108432061072A0FDA606B561E49
:100E900006EB86071F2606FA07F18843561E06EB67
:100EA000860605FA06F10843606322E00D2A0FDA90
:100EB000206BD61F06EB86071F2606FA07F188432C
:100EC000D61F06EB860605FA06F10843206310E0FC
:100ED000E06AA2F10D0606EB86071F2606FA07F167
:100EE0008843A2F10D0606EB860605FA06F10843D3
:100EF000E062F0BD816841F008018160704721B176
:100F0000826842F4A002826003E0826822F4A002B8
:100F100082607047816841F004018160704710B5BC
:100F200002F038FF012000F033F8102000F030F814
:100F300010BD000038B502F087FF472002F0A8FF7F
:100F400002F052FF02F063FF8DF80000012002F072
:100F50008EFF02F05CFF8DF80100002002F087FF99
:100F600002F07AFF9DF801109DF8002001EB0220AD
:100F7000FFF7CCFB04464FF03332034BFFF757FB30
:100F8000024A03C238BD00003333F33F080100209A
:100F900010B5044602F058FF462002F079FF02F037
:100FA00023FF204602F074FF02F01EFF02F054FF00
:100FB00010BD10B5012002F03DFD002002F03AFD09
:100FC00010BD00BFFEE7000008B50121080202F0D5
:100FD00021FD002000904FF40060ADF800001420C7
:100FE0008DF8030002208DF802006946044801F0E4
:100FF00074F94FF40061024801F00EFA08BD0000D8
:10100000002001402DE9F04F87B00024A3464FF4A3
:101010000061724801F0FEF9122000F03DF94FF432
:1010200000616E4801F0F8F90AE0601CC4B20120CA
:1010300000F047F9642C03DB002007B0BDE8F08F17
:101040004FF40061654801F0D3F90128EDD0002488
:1010500008E0601CC4B2012000F033F9642C01DB0D
:101060000020EAE74FF400615C4801F0C1F9002874
:10107000EFD04FF0000951E04FF0000A47E00024A4
:1010800008E0601CC4B2012000F01BF9642C01DBF5
:101090000020D2E74FF40061504801F0A9F901287F
:1010A000EFD0002408E0601CC4B2012000F009F970
:1010B000642C01DB0020C0E74FF40061474801F0D9
:1010C00097F90028EFD01E2000F0FBF84FF40061E4
:1010D000424801F08DF958B9414810F80900CAF1A9
:1010E00007020121914088433D4901F809000AE0C7
:1010F0003B4810F80900CAF107020121914008435A
:10110000374901F809000AF1010000F0FF0ABAF1BD
:10111000080FB4DB09F1010000F0FF09B9F1050F78
:10112000AADB2F4800782E49497808442C49897851
:1011300008442B49C978084400F0FF0B284800797F
:10114000584546D12649C8780846C078C011B0B97C
:10115000C878FFF7ECFA0746224A234BFFF7F5F968
:1011600005460E461E498878FFF7E1FA2A463346BF
:10117000CDE90401FFF742F91C4A03C224E01849F3
:10118000C9784800FFF7C2FA0546164A164BFFF722
:10119000DCF900224FF08043CDE90001FFF747FA68
:1011A000074688460E498878FFF7C1FA3A46434613
:1011B000CDE90201FFF722F900220D4BCDE9040130
:1011C000FFF7C3F9094A03C20548007807490881B7
:1011D00002E008A003F048FE00BF2EE70020014017
:1011E000020100209A9999999999B93FC804002061
:1011F0000000F0BF4448543131D0A3D1E9CAA7B0B0
:10120000DC0D0A00704700BF00BF00BF00BF00BF79
:1012100000BF00BF00BF00BF00BF00BF00BF00BFD6
:1012200000BF00BF00BF00BF00BF00BF00BF00BFC6
:1012300000BF00BF00BF00BF00BF00BF00BF00BFB6
:1012400000BF00BF00BF00BF00BF00BF00BF00BFA6
:1012500000BF00BF00BF00BF00BF00BF00BF00BF96
:1012600000BF00BF00BF00BF00BF00BF00BF00BF86
:1012700000BF00BF00BF00BF00BF00BF00BF00BF76
:1012800000BF00BF00BF00BF00BF00BF00BF00BF66
:1012900000BF00BF00BF7047F0B502464FF47A713F
:1012A00002FB01F3002400263046314604E0FFF73C
:1012B000AAFF401C41F10001C51A71EB0405F6D3E9
:1012C000F0BD00B5002102E0FFF79DFF491C8142FF
:1012D000FAD300BD10B54FF4FA710448FFF72FF8A8
:1012E00000200249A1F8520310BD0000E6040020CE
:1012F00000B587B00121482002F08CFB0020069049
:1013000018208DF81B004FF48060ADF81800022003
:101310008DF81A0006A92F4800F0DFFF04208DF891
:101320001B004002ADF8180006A92A4800F0D5FFBE
:1013300010208DF81B004020ADF8180006A92648A3
:1013400000F0CBFF0121880402F054FB0020029042
:101350000390049005904FF4E13002900020ADF826
:1013600014000C20ADF812000020ADF81000ADF80C
:101370000E00ADF80C0002A9184803F071FC012220
:1013800040F22441154803F046FC012240F2255169
:10139000124803F040FC0121104803F0F9FB002043
:1013A000019027208DF8040001208DF807008DF8AA
:1013B000050000208DF8060001A802F015FA402172
:1013C000054801F027F84021034801F025F807B04F
:1013D00000BD0000000C0140001801400048004022
:1013E000F8B50024002500267C480078082870D233
:1013F000DFE800F0041A2A3A4B5C70DD402178489F
:1014000001F008F84FF4FA7025F0CEFB4021744843
:1014100001F002F840F6B83025F0C6FB6F480078BE
:10142000401C6E490870D7E0012064236DA26E490C
:1014300000906EA000F03EFE012804D167480078BD
:10144000401C66490870C7E00120C82365A26649B0
:1014500000906AA000F02EFE012804D15F480078B9
:10146000401C5E490870B7E001204FF4FA635DA2AA
:101470005D4900906BA000F01DFE012804D1574883
:101480000078401C55490870A6E001204FF4FA632B
:1014900054A25549009067A000F00CFE012804D129
:1014A0004E480078401C4D49087095E001204EF6EA
:1014B000602366A24C49009066A000F0FBFD012865
:1014C00006D146480078401C44490870FFF702FFE7
:1014D00082E080E062A14448FEF73CFF002865D02E
:1014E00060A003F0C1FC64A13F48FEF733FF04464F
:1014F0000B34254600E06D1C28782228FBD1281BE0
:10150000C6B264215F48FEF71AFF324621465D48A5
:10151000FEF7FCFE5CA13448FEF71CFF04460B34CA
:10152000254600E06D1C28782228FBD1281BC6B276
:10153000642154486430FEF702FF32462146514888
:101540006430FEF7E3FE53A12748FEF703FF04468D
:101550000B34254600E06D1C28782228FBD1281B7F
:10156000C6B264214748C830FEF7E9FE324621463C
:101570004448C830FEF7CAFE0120494981F8C80036
:10158000484803F021FC4FF4967246493D481FF04D
:1015900075FB12480078401C10490870394BC8335D
:1015A000A3F16402374940A003F05EFC14E0002080
:1015B0004FF47A6302460C49009041A000F07AFD96
:1015C000012807D141A003F04FFC00200349087017
:1015D0004149087000E000BF00BFF8BD6001002075
:1015E000001801404F4B0000E604002041542B43FB
:1015F000574D4F44453D320D0A00000041542B43E6
:10160000575341503D22746573745F736A73222C83
:10161000223132333435363738222C362C340D0A09
:101620000000000041542B4349504D55583D310DA9
:101630000A00000041542B4349505345525645522D
:101640003D312C313030310D0A000000434F4E4EF9
:101650004543540041542B43494653520D0A000060
:101660007D000000BDD3CAD5B5BDBBAACEAAD4C6E5
:10167000C8FDD2AACBD80000436C69656E7449449A
:101680000000000069090020557365726E616D6588
:101690000000000050617373776F726400000000F7
:1016A0003C0800200050340025732C25732C257332
:1016B000D2D1B4E6C8EB7732357136340D0A00006A
:1016C00041542B5253540D0A00000000CDCBB3F609
:1016D000CDB8B4AB0D0A00005F01002008B5444846
:1016E0000078082814D2DFE800F00414244D5E6E60
:1016F0007F80012064233FA23F4900903FA000F07B
:10170000D9FC012804D13A480078401C38490870B7
:101710006CE00120642337A23749009039A000F023
:10172000C9FC012804D132480078401C30490870B7
:101730005CE0384BA3F1640237A13D4803F0A4FB01
:10174000012044F620632BA22B490090384800F07A
:10175000B1FC012805D126480078401C24490870B6
:101760000FE0012043F6982322A22349009031A0E4
:1017700000F0A0FC012804D11D480078401C1C4941
:10178000087033E001204FF47A731AA21A490090CE
:10179000314800F08FFC012804D115480078401C26
:1017A0001349087022E00120642312A2124900901C
:1017B0002AA000F07FFC012804D10D480078401CCD
:1017C0000B49087012E00120642328A20A49009006
:1017D00027A000F06FFC012805D100200449087003
:1017E00003202749087001E000E000BF00BF08BDEA
:1017F000600100204F4B0000E604002041540D0A18
:101800000000000041542B43574D4F44453D310DDE
:101810000A000000A008002041542B43574A4150C1
:101820003D222573222C222573220D0A0000000080
:101830000509002041542B43574A41503D227375FE
:101840006E6970686F6E65222C22393837363534F0
:10185000333231220D0A00009C61070841542B43AA
:1018600049504D4F44453D310D0A00003E000000F7
:1018700041542B43495053454E440D0A000000008B
:101880005F01002010B58EB06348007808286FD241
:10189000DFE800F00414244D5E6F7FAB0120642369
:1018A0005EA25F4900905FA000F004FC012804D113
:1018B00059480078401C58490870A9E00120642369
:1018C00056A25749009059A000F0F4FB012804D11A
:1018D00051480078401C5049087099E0574BA3F1DB
:1018E000640257A15C4803F0CFFA012044F620635C
:1018F0004AA24B490090584800F0DCFB012805D172
:1019000045480078401C444908700FE0012043F628
:10191000982342A24249009050A000F0CBFB01283E
:1019200004D13D480078401C3B49087070E001201C
:101930004FF47A7339A23A49009051A000F0BAFBF3
:10194000012804D134480078401C334908705FE016
:101950000120642331A23249009054A000F0AAFB78
:10196000012804D12C480078401C2B4908704FE016
:101970004DE00120642351A22949009050A000F0BD
:1019800099FB012804D124480078401C22490870A2
:101990003EE001204FF47A734DA2214900904DA002
:1019A00000F088FB01281CD159A11D48FEF7D2FC8C
:1019B0000446CCB10C342068019060680290208904
:1019C000ADF80C0001A8FEF70CFD00F5E14052490E
:1019D000086002F00DFF10480078401C0E490870A6
:1019E00002E04EA003F040FA12E000204FF47A73B8
:1019F00002460B4900904DA000F05CFB012805D188
:101A000000200549087001204949087000E000BF26
:101A100000BF0EB010BD0000600100204F4B000061
:101A2000E604002041540D0A0000000041542B43FD
:101A3000574D4F44453D310D0A000000A0080020DD
:101A400041542B43574A41503D222573222C2225D5
:101A500073220D0A000000000509002041542B43A9
:101A6000574A41503D2273756E6970686F6E6522EA
:101A70002C22393837363534333231220D0A000002
:101A800041542B43495053544152543D22544350E6
:101A9000222C226163732E6D2E74616F62616F2E32
:101AA000636F6D222C38300D0A00000041542B4327
:101AB00049504D4F44453D310D0A00003E000000A5
:101AC00041542B43495053454E440D0A0000000039
:101AD0007D7D00004745542068747470733A2F2F41
:101AE0006163732E6D2E74616F62616F2E636F6D13
:101AF0002F67772F6D746F702E636F6D6D6F6E2E05
:101B000067657454696D657374616D700D0A0000CA
:101B100064617461000000004C010020CAB1BCE4A3
:101B2000BDE2CEF6CAA7B0DC0D0A00002B2B2B00BD
:101B30005F0100202DE9F04190B0E54800780928C8
:101B400070D2DFE800F00515254E5F7080FEFD00C5
:101B500001206423DFA2E0490090E0A000F0AAFA8F
:101B6000012804D1DA480078401CD9490870AAE15C
:101B700001206423D7A2D8490090DAA000F09AFA95
:101B8000012804D1D2480078401CD14908709AE15C
:101B9000D84BA3F16402D8A1DD4803F075F9012008
:101BA00044F62063CBA2CC490090D94800F082FAD9
:101BB000012805D1C6480078401CC54908700FE0CF
:101BC000012043F69823C3A2C3490090D1A000F09E
:101BD00071FA012804D1BE480078401CBC49087045
:101BE00071E101204FF47A73BAA2BB490090D2A0F0
:101BF00000F060FA012804D1B5480078401CB449CF
:101C0000087060E101206423B2A2B3490090D5A01E
:101C100000F050FA012804D1AD480078401CAC49CE
:101C2000087050E14EE101206423D2A2AA4900903D
:101C3000D1A000F03FFA012804D1A5480078401C4B
:101C4000A34908703FE101204FF47A73CEA2A24964
:101C50000090D04800F02EFA012829D14FF000085A
:101C6000CDA19D48FEF776FB044604B30C34222137
:101C70002046FEF781FB8046B8F1000F17D0A8EB95
:101C80000407312F00D931273A46214603A8FEF731
:101C90003DFB002003A9C85503A8FEF7A2FBC249DB
:101CA000087008460178C1A003F0DEF800BF02E02A
:101CB000C3A003F0D9F8C6A18748FEF74BFB054641
:101CC0000DB3083522212846FEF756FB8046B8F1B1
:101CD000000F17D0A8EB0507312F00D931273A465E
:101CE000294603A8FEF712FB002003A9C85503A844
:101CF000FEF777FBB949087008460178B8A003F0F1
:101D0000B3F800BF00BFBBA17348FEF723FB064634
:101D10004EB3F61D22213046FEF72EFB8046B8F169
:101D2000000F1FD0A8EB0607312F00D931273A4604
:101D3000314603A8FEF7EAFA002003A9C85501E0DE
:101D4000AEE011E003A8FEF74CFBAC490870084672
:101D50000178ABA003F088F85D480078401C5C492E
:101D6000087000BF00BFAEE04FF4FA715A48FEF7AA
:101D7000E6FA01204FF47A7383A257490090A548F0
:101D800000F098F901282ED14FF0000882A15248A6
:101D9000FEF7E0FA04462CB30C3422212046FEF76D
:101DA000EBFA8046B8F1000F1CD0A8EB0407312FE6
:101DB00000D931273A46214603A8FEF7A7FA0020AA
:101DC00003A9C85503A8FEF70CFB93490870084601
:101DD000017892A003F048F83D480078401C3C4947
:101DE000087000BF02E076A003F03EF878A13A4800
:101DF000FEF7B0FA05460DB3083522212846FEF756
:101E0000BBFA8046B8F1000F17D0A8EB0507312FB9
:101E100000D931273A46294603A8FEF777FA002071
:101E200003A9C85503A8FEF7DCFA824908700846E2
:101E3000017881A003F018F800BF00BF6DA126480B
:101E4000FEF788FA06460EB3F61D22213046FEF74D
:101E500093FA8046B8F1000F17D0A8EB0607312F90
:101E600000D931273A46314603A8FEF74FFA002041
:101E700003A9C85503A8FEF7B4FA754908700846C7
:101E8000017874A002F0F0FF00BF00BF02200290B2
:101E900000231A4602A97548006825F0B1FC12E03B
:101EA00000204FF47A7302460B49009070A000F0B6
:101EB00001F9012805D100200549087002206D496B
:101EC000087000E000BF00BF10B0BDE8F081000066
:101ED000600100204F4B0000E604002041540D0A31
:101EE0000000000041542B43574D4F44453D310DF8
:101EF0000A000000A008002041542B43574A4150DB
:101F00003D222573222C222573220D0A0000000099
:101F10000509002041542B43574A41503D22737517
:101F20006E6970686F6E65222C2239383736353409
:101F3000333231220D0A000041542B43495053548F
:101F40004152543D22544350222C226170692E7319
:101F5000656E6976657273652E636F6D222C3830FD
:101F60000D0A000041542B4349504D4F44453D312B
:101F70000D0A00003E00000041542B4349505345D8
:101F80004E440D0A00000000636F64655F64617970
:101F9000000000001861070822636F64655F6461D8
:101FA00079223A220000000059010020576561742F
:101FB00068657220636F6465203D2025640A000017
:101FC000CCECC6F8BDE2CEF6CAA7B0DC0D0A000024
:101FD0002268696768223A22000000005A01002046
:101FE000776561746865725F68696768203D202560
:101FF000640A0000226C6F77223A22005B01002005
:10200000776561746865725F6C6F77203D20256429
:102010000A000000986007085C0100207765617481
:102020006865725F6E625F636F6465203D20256442
:102030000A0000005D010020776561746865725FC9
:102040006E625F68696768203D2025640A000000B1
:102050005E010020776561746865725F6E625F6C17
:102060006F77203D2025640A000000004C0000200E
:102070002B2B2B005F01002070B505460E46002477
:1020800004E0285D00F006F8601C84B2B442F8DB7E
:1020900070BD000010B5044600BF4021044802F0A6
:1020A00083FD0028F9D02146014802F04AFE10BD08
:1020B000004800402DE9F04107460D4616461C46F3
:1020C000DDF81880FFF706F9384600F01AF8B8F185
:1020D000000F05D12046FFF7DFF80120BDE8F081B1
:1020E00007E00120FFF7D8F8601E84B20CB9002089
:1020F000F4E731462846FEF72DF90028F1D00120FB
:10210000ECE710B5044603E014F8010BFFF7C2FF3B
:1021100020780028F8D110BD10B5012000F03CF85F
:10212000012804D100F05EFE012000F023F810BD6C
:1021300010B5102000F024F8012804D100F04AFE68
:10214000102000F017F810BD10B5202000F018F88E
:10215000012804D101F046FD202000F00BF84020BA
:1021600000F00EF8012804D101F032FD402000F00B
:1021700001F810BD014908607047000014040140D7
:1021800001460020034A12680A400AB1012000E01B
:102190000020704714040140014600200022074B34
:1021A0001B6803EA0102054B14331B680B4013B193
:1021B0000AB1012000E00020704700000004014047
:1021C00051B18200A2F1C042126842F001038200C4
:1021D000A2F1C042136009E08200A2F1C04212687D
:1021E000034B1A408300A3F1C0431A6070470000FC
:1021F000FEFF0F00D0E901121143C26811430269CA
:1022000011434269114382691143C2691143026A51
:102210001143426A1143826A1143C26A1143026B3D
:10222000114302689200A2F1C0421160816808293E
:102230000BD101688900A1F1C041096841F0400259
:1022400001688900A1F1C0410A60416B0968426BD5
:10225000526841EA0211426B926841EA0221426BE4
:10226000928941EA0241426B128A41EA0251426B71
:10227000127D41EA0261426B926911430268521C6D
:102280009200A2F1C0421160C16AB1F5804F1BD12A
:10229000816B0968826B526841EA0211826B926815
:1022A00041EA0221826B128A41EA0251826B127D5D
:1022B00041EA0261826B9269114302689200A2F1C5
:1022C000C042C2F8041107E06FF070420168890053
:1022D000A1F1C041C1F8042170472DE9F041024647
:1022E00000250026002000230024002791F803C0C9
:1022F0000CF00F0591F803C00CF0100CBCF1000FAE
:1023000003D091F802C04CEA050591F800C0BCF179
:10231000000F31D0146800202BE04FF0010C0CFAB4
:1023200000F3B1F800C00CEA03069E4220D18300FE
:102330004FF00F0C0CFA03F7BC4305FA03FC4CEA10
:10234000040491F803C0BCF1280F06D14FF0010C32
:102350000CFA00FCC2F814C00AE091F803C0BCF10A
:10236000480F05D14FF0010C0CFA00FCC2F810C068
:10237000401C0828D1D31460B1F800C0BCF1FF0F95
:1023800034DD546800202EE000F1080C4FF0010805
:1023900008FA0CF3B1F800C00CEA03069E4221D102
:1023A00083004FF00F0C0CFA03F7BC4305FA03FC53
:1023B0004CEA040491F803C0BCF1280F05D100F1E8
:1023C000080C08FA0CF8C2F8148091F803C0BCF1AC
:1023D000480F07D100F1080C4FF0010808FA0CF87B
:1023E000C2F81080401C0828CED35460BDE8F081AC
:1023F0000246002093680B400BB1012000E0002052
:10240000704702460020D3680B400BB1012000E06A
:102410000020704741617047016170470AB1016156
:1024200000E04161704700BFFEE700004CF6CC4081
:1024300001490860704700000030004010B500F00E
:1024400013F810BD10B545F2555000F021F80420E6
:1024500000F012F842F2107000F014F800F004F8E6
:10246000FFF7E4FF10BD00004AF6AA20014908600A
:10247000704700000030004001494860704700008C
:102480000030004001498860704700000030004083
:1024900001490860704700000030004008B5012184
:1024A000142001F0B7FA0020009004208DF80300FA
:1024B0000120ADF8000069460548FFF70EFF7020C7
:1024C000ADF8000069460348FFF707FF08BD0000AC
:1024D000000801400010014010B5002401213B48D4
:1024E000FFF786FF012805D139480088401C38498C
:1024F000088011E03648008801280ADD3448008849
:10250000012805DD32480088642801DC012400E050
:10251000052400202E49088010212E48FFF768FF6F
:1025200028B92B484088401C2949488011E0284898
:10253000408801280ADD26484088012805DD244816
:102540004088642801DC022400E0062400202049A1
:10255000488020211F48FFF74BFF28B91C4880887E
:10256000401C1B49888011E01948808801280ADD39
:1025700017488088012805DD15488088642801DC1B
:10258000032400E0072400201149888040211148DD
:10259000FFF72EFF28B90E48C088401C0C49C880A0
:1025A00011E00B48C08801280ADD0948C0880128CD
:1025B00005DD0748C088642801DC042400E0082405
:1025C00000200349C880204610BD000000080140DB
:1025D000EE0000200010014003480021016041602E
:1025E00000200149087270476404002000B587B0DC
:1025F0000121042001F00EFA002006900420ADF81D
:10260000180018208DF81B0002208DF81A0006A96A
:102610002448FFF762FE0820ADF8180004208DF86A
:102620001B0006A91F48FFF758FE0121480401F0CE
:10263000E1F9002002900390049005904FF41650A9
:1026400002900C20ADF812000020ADF81000ADF89B
:102650000E00ADF80C0002A9134802F001FB0122A4
:1026600040F22551104802F0D6FA012240F22441EE
:102670000D4802F0D0FA01210B4802F089FA00203F
:10268000019026208DF8040001208DF8070002201B
:102690008DF8050000208DF8060001A801F0A4F8CF
:1026A00007B000BD0008014000440040F8B5002517
:1026B000FFF712FF054606200090092D3AD2DFE809
:1026C00005F00506070E0F2122232E0033E032E02D
:1026D0001A480668304611F02BFF00BF2BE02AE0B5
:1026E00000231A4669461648006825F089F8044612
:1026F000012C03D113A01EF081FB02E018A01EF0F4
:102700007DFB18E017E016E00C49486D012119F037
:102710004BFF0A49886D002119F046FF0BE007497D
:10272000486D002119F040FF0449886D012119F01E
:102730003BFF00E000BF00BFF8BD000068BE002006
:1027400048000020B0B4BCFC34B0B4CFC22CB7A257
:10275000CBCD4150CFFBCFA2B3C9B9A60D0A000023
:10276000B0B4BCFC34B0B4CFC22CB7A2CBCD415076
:10277000CFFBCFA2CAA7B0DC0D0A000070B504469B
:10278000002609480588408845430021084600F096
:10279000E9FA00F00DFB00BF02E004480480761C5B
:1027A000AE42FAD370BD0000D80400200008006CCF
:1027B0002DE9F84F07460D4690469946DDF828B0BA
:1027C000A8EB0700401C1FFA80FAA9EB0500401C8B
:1027D00080B20090002414E0281981B2384600F03D
:1027E000C1FA00F0E5FA002607E004FB0A603BF8B6
:1027F000100006490880701C86B25645F5DB601C47
:1028000084B200988442E7DBBDE8F88F0008006CD2
:1028100010B5CF2000F0C6FA002000F0BDFAC120AC
:1028200000F0BAFA302000F0B7FAED2000F0BAFA62
:10283000642000F0B1FA032000F0AEFA122000F09C
:10284000ABFA812000F0A8FAE82000F0ABFA85206E
:1028500000F0A2FA102000F09FFA7A2000F09CFA13
:10286000CB2000F09FFA392000F096FA2C2000F0DF
:1028700093FA002000F090FA342000F08DFA022044
:1028800000F08AFAF72000F08DFA202000F084FA98
:10289000EA2000F087FA002000F07EFA002000F025
:1028A0007BFAC02000F07EFA1B2000F075FAC120F0
:1028B00000F078FA012000F06FFAC52000F072FAFB
:1028C000302000F069FA302000F066FAC72000F0EE
:1028D00069FAB72000F060FA362000F063FA482069
:1028E00000F05AFA3A2000F05DFA552000F054FA50
:1028F000B12000F057FA002000F04EFA1A2000F044
:102900004BFAB62000F04EFA0A2000F045FAA22059
:1029100000F042FAF22000F045FA002000F03CFA04
:10292000262000F03FFA012000F036FAE02000F007
:1029300039FA0F2000F030FA2A2000F02DFA282072
:1029400000F02AFA082000F027FA0E2000F024FAFE
:10295000082000F021FA542000F01EFAA92000F00F
:102960001BFA432000F018FA0A2000F015FA0F2095
:1029700000F012FA002000F00FFA002000F00CFA2C
:10298000002000F009FA002000F006FAE12000F033
:1029900009FA002000F000FA152000F0FDF91720D8
:1029A00000F0FAF9072000F0F7F9112000F0F4F92F
:1029B000062000F0F1F92B2000F0EEF9562000F08F
:1029C000EBF93C2000F0E8F9052000F0E5F91020D3
:1029D00000F0E2F90F2000F0DFF93F2000F0DCF911
:1029E0003F2000F0D9F90F2000F0D6F92B2000F09D
:1029F000D9F9002000F0D0F9002000F0CDF9012035
:102A000000F0CAF93F2000F0C7F92A2000F0CAF907
:102A1000002000F0C1F9002000F0BEF9002000F015
:102A2000BBF9EF2000F0B8F9112000F0BBF97820D5
:102A3000FEF732FC292000F0B5F910BD10B50446B0
:102A400074B900200F498871F02008804FF4A070FD
:102A500048802C2008812A2048812B2088810DE085
:102A60000120084988714FF4A0700880F020488048
:102A70002C2008812A2048812B208881002000F00A
:102A8000CDF810BDD804002000B597B00121080290
:102A900000F0A0FF0020019002900320039000208E
:102AA0000490059006900790062008900020099059
:102AB0000A9010200B9000200C900D900E900F901B
:102AC00010904FF4805011900020129013901490A9
:102AD00001A81590169008A8FFF78CFB012106208D
:102AE000FFF76EFB17B000BD08B501214FF4B470BD
:102AF00000F090FF0120ADF8000010208DF80300D9
:102B000003208DF8020069461648FFF7E6FB4CF2F9
:102B10003370ADF8000018208DF8030003208DF805
:102B2000020069461048FFF7D8FB4FF68070ADF8F9
:102B3000000018208DF8030003208DF8020069467C
:102B40000A48FFF7CAFB41F20100ADF80000182067
:102B50008DF8030003208DF8020069460448FFF752
:102B6000BCFB08BD000C01400014014000180140EE
:102B70000020014010B5FFF7B7FFFFF785FF3220B7
:102B8000FEF78AFB00F01AF8FFF742FE0020FFF77D
:102B900055FF01210348FFF73FFC4FF6FF70FFF799
:102BA000EDFD10BD000C014008B503480088009001
:102BB000BDF8000008BD00000008006C10B5D3206F
:102BC00000F0F0F8FFF7F0FF0F498880FFF7ECFF07
:102BD0000D498880FFF7E8FF0B4988800846808808
:102BE0004FF6FF7101EA002007498880FFF7DCFFFC
:102BF000054989880843044988800846818803A0DC
:102C000002F032F910BD0000D80400206C6364208B
:102C10006964A3BA25580D0A0000000070B5044687
:102C2000002300264E488079012818D1082C15D29F
:102C3000DFE804F00406080A0C0E101206240DE06A
:102C400007240BE0042409E0052407E0012405E043
:102C5000002403E0032401E0022400BF00BF404839
:102C6000808849F24131884278D1082C1CD2DFE8B3
:102C700004F00406090C0F12151800BF14E043F00D
:102C8000800311E043F040030EE043F0C0030BE08B
:102C900043F0200308E043F0600305E043F0A003A5
:102CA00002E043F0E00300BF00BF362643F0080314
:102CB0001946304600F086F82948808841F66311AD
:102CC00088421DD003F0200068B1254800882449BF
:102CD0004988884214DA22480588408820490880BB
:102CE000084645800CE01E4800881D4949888842F6
:102CF00006DD1B480588408819490880084645803C
:102D00001749488900F04EF8002000F045F80020EF
:102D100000F042F812490988491EC1F30F2000F063
:102D20003BF80F490978491EC8B200F035F80C4944
:102D3000888900F037F8002000F02EF8002000F01D
:102D40002BF807494988491EC1F30F2000F024F8E9
:102D500003498978491EC8B200F01EF870BD000012
:102D6000D804002000B502460B460A49488900F005
:102D700019F8101200F010F8D0B200F00DF8054963
:102D8000888900F00FF8181200F006F8D8B200F0A9
:102D900003F800BDD80400200149088070470000F6
:102DA0000008006C0149088070470000FE07006CB5
:102DB000024800890249088070470000D8040020BA
:102DC000FE07006C024A1080921C118070470000C0
:102DD000FE07006C10B504210148FFF71DFB10BD74
:102DE0000018014010B504210148FFF713FB10BD86
:102DF0000018014010B504210548FFF702FBC0F19F
:102E00000100C4B2224604210148FFF707FB10BDB0
:102E10000018014010B508210148FFF7FDFA10BD68
:102E20000018014010B508210148FFF7F3FA10BD62
:102E30000018014010B510210348FFF7EDFA0020FB
:102E40000249087010BD0000001801406900002010
:102E500010B510210348FFF7DDFA01200249087080
:102E600010BD0000001801406900002038B50121A4
:102E7000402000F0CFFD0020009010208DF80300CE
:102E80003C20ADF8000002208DF8020069461A4887
:102E9000FFF723FA04211848FFF7B3FAC0F1010045
:102EA000C4B2224604211448FFF7B8FA0821124898
:102EB000FFF7A7FAC0F10100C4B2224608210E486C
:102EC000FFF7ACFA10210C48FFF79BFAC0F10100A4
:102ED000C4B2224610210848FFF7A0FA2021064874
:102EE000FFF78FFAC0F10100C4B222462021024848
:102EF000FFF794FA38BD00000018014030B50246D3
:102F0000002300BF0846CD1701EB5565ED11A1EB7D
:102F1000C515ECB2CD1701EB5565E911002901DDAE
:102F200044F0800418465B1C14540029EADC18465F
:102F300030BD0000401C802801DA401C0AE0B0F5DA
:102F4000804F01DA801C05E00349884201DAC01C89
:102F500000E0001D70470000FFFF1F002DE9FE4349
:102F600005460E4614460295002001900090002769
:102F70004FF0FF38204600F0A5F807468146FFF7DE
:102F8000D9FFB04202DD6FF001088FE000208DF81C
:102F90000400019820F0F000103001909DF804101A
:102FA00002A824F09AFA39460298FFF7A7FF02997F
:102FB00008440290207A042808D13EA102A824F0F7
:102FC00078FA042102A824F088FA07E03BA102A8BD
:102FD00024F06FFA032102A824F07FFA00208DF874
:102FE0000000A17E009861F341000090E07E08B1EE
:102FF000012100E00021009861F382000090009818
:10300000C0F3800058B194F83D10009861F3C400FB
:10301000009094F83C10009861F345100090206CEB
:1030200008B9A06C20B1009820F08000803000909A
:10303000E06C08B9606D20B1009820F0400040308D
:1030400000909DF8001002A824F047FA218B02A8F6
:1030500024F049FA02A8D4E90423E16824F05BFAD9
:10306000E07E58B102A8D4E90A23616A24F053FA39
:1030700002A8D4E90D23216B24F04DFA0098C0F387
:10308000C01028B102A8D4E91123216C24F043FA1E
:103090000098C0F3801028B102A8D4E91423E16C91
:1030A00024F039FA0298A0EB050800BF4046BDE8BD
:1030B000FE8300004D515454000000004D514973EF
:1030C0006470000070B504460025207A032801D101
:1030D0000C2503E0207A042800D10A25D4E9041243
:1030E000E06800F0F3FA801C0544E07E68B1D4E9A2
:1030F0000A12606A00F0EAFA861CD4E90D12206B0D
:1031000000F0E4FA3044801C0544206C08B9A06C3F
:1031100030B1D4E91112206C00F0D8FA801C0544BB
:10312000E06C08B9606D30B1D4E91412E06C00F0C5
:10313000CDFA801C0544284670BD70B504460D4686
:103140000C222946204600F0D9F870BD2DE9F04F39
:1031500087B005460F4690461C46DDE915B6DDE909
:10316000109A069500200590049003900096204642
:1031700012A90EC900F042F804900290FFF7DAFE9F
:10318000B84203DD6FF00100039033E0059820F0B2
:10319000F00030300590059868F3C300059005985D
:1031A00064F342000590059869F3000005909DF8CE
:1031B000141006A824F091F904990698FFF79EFED2
:1031C00006990844069006A812A90EC924F0A3F98E
:1031D000002C03DD514606A824F085F932465946F5
:1031E0000698FDF793F80698304406900698401B21
:1031F000039000BF039807B0BDE8F08F7FB5054688
:10320000089E002401A807C800F060FA801C304422
:103210000444002D00DDA41C204604B070BD2DE93F
:10322000FF5F05460E4617469846DDE90E9A039560
:10323000002002900190009000245146484600F082
:1032400046F883460190FFF775FEB04202DDA01EEE
:10325000009038E000208DF80800029820F0F0007F
:1032600080300290029867F3C3000290029820F029
:103270000600801C02909DF8081003A824F02DF988
:1032800001990398FFF73AFE0399084403904146D9
:1032900003A824F028F900240FE004EB44000AEB13
:1032A000800C03A89CE80E0024F035F9109810F863
:1032B000241003A824F011F9641C4C45EDDB03989D
:1032C000401B009000BF009804B0BDE8F09F2DE9BE
:1032D000F04105460E46022700240AE004EB4400B4
:1032E00006EB800393E8070000F0F0F9C01C0744E8
:1032F000641CAC42F2DB3846BDE8F0812DE9FC41AC
:1033000004460D46164600200190471E0094022DEB
:1033100001DA871E15E000208DF80400019866F39D
:10332000071001909DF80410684624F0D6F800219B
:103330000098FFF7E3FD0099084400900098071BF0
:1033400000BF3846BDE8FC8130B597B04FF47A75C0
:103350005822244901A8FCF7D9FF002422A0049098
:103360003C20ADF81C0001208DF81E002BA0119010
:103370003348149001AA4FF4AF713248FFF7EEFDC5
:103380000446002C04DC30A001F06EFD17B030BD07
:10339000FDF7A0FFA1B22B4801F0AEFAA1B2294877
:1033A000FEF76AFE17E00120FDF776FF2B48007854
:1033B000202810D12948407802280CD1274880784D
:1033C00048B92648C07830B925A001F04DFD042049
:1033D00029490870DAE7281EA5F101018DB2E2D172
:1033E00000BFD3E7188202083638633930333732EA
:1033F00033323737316631373762363061396437C7
:103400005F4465766963655F736A735F305F305FE1
:1034100032303235303931363036000036386339A3
:1034200030333732333237373166313737623630FF
:10343000613964375F4465766963655F736A7300F9
:10344000F0610708DA060020C1ACBDD3B1A8CEC434
:10345000B4F2B0FCCAA7B0DC0D0A0000E6040020FC
:10346000CAD5B5BDD5FDC8B7B5C4C1ACBDD3D3A60B
:10347000B4F00D0A000000005F01002010B5002428
:103480004FF4AF710A48FFF758FE0446002C03DCE6
:1034900008A001F0E9FC10BDFDF71CFFA1B2044833
:1034A00001F02AFAA1B20248FEF7E6FD00BFF2E7FA
:1034B000DA060020D0C4CCF8B1A8CEC4B4F2B0FC77
:1034C000CAA7B0DC0D0A00002DE9F04FD9B04FF0CB
:1034D000000A4FF496710EA8FCF731FFD346002086
:1034E0000B900C900D902A480B902A494868FDF7E4
:1034F00063F904460D4627490868FDF75DF98046E3
:1035000024480089CDE90681CDE908450A90224882
:1035100003C8CDE90401214903C9CDE902012048CE
:10352000008900901E48D0E9006332461D490EA86C
:1035300001F0AAFC0EA8FCF729FF1FFA80FB0EA8D9
:10354000CDE9050B0BA807C802AB07C3002000900C
:10355000034602464FF4AF7101901348FFF7F6FDA2
:103560008246BAF1000F05DC10A001F07DFC59B0D5
:10357000BDE8F08FFDF7AEFE1FFA8AF10A4801F0B0
:10358000BBF91FFA8AF10848FEF776FD00BFEEE7A7
:103590003462070870040020180100200801002090
:1035A000C80400207C620708DA060020B7A2B2BC7B
:1035B000B1A8CEC4B4F2B0FCCAA7B0DC0D0A0000BA
:1035C00070B588B04FF47A7600240125002007906A
:1035D0000490059006901FA0049007A804A901225A
:1035E0002B46CDE90021029000224FF4AF7129480B
:1035F000FFF715FE0446002C04DC27A001F034FC84
:1036000008B070BDFDF766FEA1B2224801F074F962
:10361000A1B22048FEF730FD15E00120FDF73CFE89
:103620002248007890280ED12048407803280AD1FB
:103630001FA001F019FC00201C4981F8540305204B
:1036400021490870DCE7301EA6F101018EB2E4D1F9
:1036500000BFD5E7246F632F646576696365732FB8
:1036600036386339303337323332373731663137B2
:1036700037623630613964375F4465766963655F08
:10368000736A732F7379732F636F6D6D616E6473DB
:103690002F230000DA060020B6A9D4C4B1A8CEC4F6
:1036A000B4F2B0FCCAA7B0DC0D0A0000E6040020AA
:1036B000CAD5B5BDD5FDC8B7B5C4B6A9D4C4D3A6BF
:1036C000B4F00D0A000000005F01002037B50024AF
:1036D000009820B10098FCF759FE044600E0019CD8
:1036E00020463EBD00B589B00121082000F092F9C6
:1036F0000020089018208DF823004001ADF820002C
:1037000003208DF8220008A92148FEF7E6FD4FF4BA
:1037100000711F48FEF77EFE0121042000F06AF9C7
:103720000020059006900790ADF816006320ADF8D4
:10373000180040F2CF20ADF8140005A9154800F09C
:10374000E7FF0121134800F060FF00200190029084
:10375000039004906020ADF804000020ADF80C0048
:103760000120ADF806004220ADF80A0001A9094881
:1037700000F072FF0821074800F0BEFF0121054854
:1037800000F034FF0021034800F0BFFF09B000BD86
:10379000000C01400008004010B54FF4407104488F
:1037A000FEF738FE0021034800F0AFFF10BD000017
:1037B000000C01400008004010B54FF4807106482D
:1037C000FEF72AFE4FF400710348FEF723FE422164
:1037D000024800F09AFF10BD000C014000080040B4
:1037E00000BFFEE77047000070B5002100230F22E4
:1037F000C47804B3154C246804F4E064C4F5E064B0
:10380000210AC1F10403CA40447804FA03F1847820
:103810001440214309010E4C0678A155047804F0A8
:103820001F050124AC4005786D11AD0005F1E025C0
:10383000C5F8004109E0047804F01F050124AC40FC
:10384000044D0678761145F8264070BD0CED00E079
:1038500000E400E080E100E002490143024A116017
:10386000704700000000FA050CED00E010B5C92219
:103870004FF4511120481DF0D7F91F4890F8C800A7
:10388000012809D11DA001F0EFFA1B4A64321A4940
:103890001EA001F0E9FA1FE026A001F0E5FA4FF4BE
:1038A000511001F091FA2BA11348FCF791FD2CA1C6
:1038B00011486430FCF78CFD01200F4981F8C800E5
:1038C000C9224FF451110C481DF0D8F90A4A64324C
:1038D00009490EA001F0C8FA4FF496722349244812
:1038E0001DF0A2F9224B643303F16402204921A0A8
:1038F00001F0BAFA10BD00003C080020B2CECAFDAB
:10390000D0A3D1E9CDA8B9FD0D0A0000C9E8B1B82E
:10391000CAB9D3C3B5C4574946495F4E616D653DC9
:1039200025732C574946495F5077643D25730D0A2E
:1039300000000000B2CECAFDD0A3D1E9B2BBCDA831
:10394000B9FDA3ACCAB9D3C3C4ACC8CFB2CECAFD0B
:103950000D0A000073756E6970686F6E6500000077
:1039600039383736353433323100000000503400F6
:1039700069090020C9E8B1B8CAB9D3C3B5C468772A
:103980002E436C69656E7449443D25732C68772E0F
:1039900050617373776F72643D25732C68772E5571
:1039A0007365726E616D653D25730D0A0000000040
:1039B000014908627047000000000E4201460020E5
:1039C000034A506820F440400843506070470000AC
:1039D0000010024029B1064A52690243044B5A6161
:1039E00004E0034A52698243014B5A617047000068
:1039F0000010024029B1064AD2690243044BDA6141
:103A000004E0034AD2698243014BDA617047000047
:103A10000010024029B1064A92690243044B9A61A0
:103A200004E0034A92698243014B9A6170470000A7
:103A30000010024001490860704700004004424203
:103A400030B500210022002400232D4D6D6805F0C3
:103A50000C0121B1042905D0082923D105E0294D05
:103A6000056022E0274D05601FE0254D6D6805F4D7
:103A70007012234D6D6805F48034022505EB9242E7
:103A80001CB9214D554305600BE01D4D6D6805F4D3
:103A900000351DB11C4D5543056002E0194D5543DD
:103AA000056002E0174D056000BF00BF144D6D6852
:103AB00005F0F0010909154D6B5C0568DD404560B6
:103AC0000F4D6D6805F4E061090A104D6B5C4568A7
:103AD000DD4085600A4D6D6805F46051C90A0B4DE3
:103AE0006B5C4568DD40C560054D6D6805F440417F
:103AF000890B074D6B5CC568B5FBF3F5056130BDFF
:103B00000010024000127A0000093D006A01002006
:103B10007A01002010B501460022002300204A113E
:103B2000012A02D1094C236806E0022A02D1074C7F
:103B3000236A01E0054C636A01F01F0201249440EE
:103B40001C400CB1012000E0002010BD001002401C
:103B500000210B4A11700A4A203A82F820100128ED
:103B600002D0042808D103E00121054A117004E0C5
:103B70000521034A117000E000BF00BF704700003C
:103B80002010024001490860704700003C04424296
:103B90000249096A0143014A11627047001002405C
:103BA00008B501210420FFF735FF00200090102008
:103BB0008DF80300C001ADF8000002208DF802006E
:103BC00069460248FEF789FB08BD00000008014075
:103BD00010B54FF400610248FEF71CFC10BD000058
:103BE0000008014010B54FF400610248FEF714FCD4
:103BF00010BD000000080140024909888143014AC4
:103C0000118070470428004008B501214FF0C050D2
:103C1000FFF7F0FE0120FFF7CBFEFDF7CAF9012008
:103C2000FFF796FF00BF4120FFF774FF0028FAD08E
:103C30004FF48070FFF7ACFF0120FFF7A3FF00F007
:103C400097F800F08BF80121084600F059F800F0D1
:103C500085F847F6FF7000F071F800F07FF8032058
:103C60008DF8000001208DF801008DF802008DF81C
:103C700003006846FFF7B8FD00F0A6FD08BD000090
:103C80000348008840F01000014908807047000098
:103C900004280040034800884FF6EF7108400149AE
:103CA0000880704704280040002103480188001F55
:103CB000008841EA004070471C280040014600206F
:103CC000064A12880A40D0B2044A121F12880A40DB
:103CD00012B108B1012000E0002070470428004024
:103CE00010B50120FFF7EAFF30B101200349087049
:103CF000FFF782FF00F032F810BD000058010020ED
:103D000029B1064A12880243044B1A8004E0034A90
:103D100012888243014B1A8070470000002800403F
:103D200000B50246FFF7ACFF100C03490880091DDF
:103D30000A80FFF7AFFF00BD1828004000B502461B
:103D4000FFF79EFFC2F3034003490880091D0A8064
:103D5000FFF7A0FF00BD00000828004000BF034897
:103D6000008800F020000028F9D0704704280040A7
:103D7000074800884FF6F77108400549088000BFE2
:103D80000348008800F008000028F9D070470000C0
:103D90000428004008B501210820FFF73BFE002061
:103DA0000090C020ADF8000014208DF80300022020
:103DB0008DF8020069460448FEF78FFAC0210248D8
:103DC000FEF72AFB08BD0000000C014010B50024DE
:103DD00080210448FEF70CFB04460A20FDF771FA27
:103DE000204610BD000C014010B50024012000F059
:103DF00077F8012000F066F8FFF7E8FF044600209E
:103E000000F060F80CB9012010BD0020FCE770B58F
:103E1000012000F065F800250026002410E00120B4
:103E200000F050F8FFF7D2FF0646C4F1070106FA8A
:103E300001F02843C5B2002000F044F8601CC4B271
:103E4000082CECDB284670BD10B5002000F048F8C7
:103E5000002000F037F810BD10B5002000F040F849
:103E6000012000F02FF8012000F03AF810BD10B545
:103E700004461CB9012000F033F802E0002000F0F5
:103E80002FF8012000F01EF8002000F01BF810BDF4
:103E900070B506460025002410E0C4F1070046FA7C
:103EA00000F505F00105284600F01AF8012000F0A1
:103EB00009F8002000F006F8601CC4B2082CECDB06
:103EC00070BD000010B50446224640210348FEF7AD
:103ED000A5FA0A20FDF7F5F910BD0000000C01401D
:103EE00010B50446224680210348FEF797FA0A20BF
:103EF000FDF7E7F910BD0000000C014021B1028878
:103F000042F04002028004E002884FF6BF731A407C
:103F10000280704700B587B001210820FFF77AFDC5
:103F20000020069010208DF81B000002ADF818004C
:103F300003208DF81A0006A92348FEF7CEF91820B1
:103F40008DF81B004FF42040ADF8180006A91E485C
:103F5000FEF7C3F904208DF81B000003ADF818002C
:103F600006A91948FEF7B9F901218803FFF742FDB8
:103F7000142101A8FCF7E3F90020ADF8100001209E
:103F8000ADF80C000220ADF80A000020ADF80800E2
:103F9000ADF80400ADF812004FF48270ADF80600E1
:103FA0004FF40070ADF80E0001A9084800F01EF8AB
:103FB00001210648FFF7A2FF4FF480510248FEF7A7
:103FC0002BFA07B000BD0000000C01400038004093
:103FD0000246002013890B400BB1012000E00020B5
:103FE00070470146888970478181704710B500226B
:103FF000028802F441520B884C8823438C88234367
:10400000CC8823430C8923434C8923438C89234345
:10401000CC8923431A430280838B4FF2FF742340E1
:1040200083830B8A038210BD70B5044600BF022152
:104030000A48FFF7CDFF0028F9D021460748FFF7CF
:10404000D3FF00BF01210548FFF7C2FF0028F9D0C8
:104050000248FFF7C6FFC5B2284670BD00380040D1
:1040600010B53C210348FCF76AF90020014981F8AA
:10407000490010BD7C04002000B587B0012110204C
:10408000FFF7C8FC002006904FF48060ADF81800E0
:1040900018208DF81B0002208DF81A0006A926486A
:1040A000FEF71BF94FF40060ADF8180004208DF8FE
:1040B0001B0006A92048FEF710F90121C804FFF7EC
:1040C00099FC002002900390049005904FF4165044
:1040D00002900020ADF814000C20ADF81200002072
:1040E000ADF81000ADF80E00ADF80C0002A91348B1
:1040F00000F0B6FD0121114800F04AFD012240F216
:1041000025510E4800F087FD012240F224410B4862
:1041100000F081FD0020019034208DF80400012082
:104120008DF807008DF8050002208DF8060001A823
:10413000FFF75AFB07B000BD00100140004C0040E3
:1041400070B5002405E07948015D79A000F08CFE8F
:10415000641C764890F84900A042F4DC76A000F098
:1041600083FE72480078AA2871D17048407855289B
:10417000FAD16E4800795528F6D16C484079AA28C2
:10418000F2D16A48C078152874D2DFE800F00B0C31
:104190000D10131B232831373D444C4F5257616A91
:1041A000747DA300BBE0BAE0FEF71CFEB7E0FEF7AB
:1041B00011FEB4E061490868FCF7FEFA044605F018
:1041C00075FCACE05D494868FCF7F6FA044605F07A
:1041D00057FAA4E05949088905F0A2FA9FE0584A25
:1041E00012681179564A1268107A05F029FC96E097
:1041F000422054490870FFF7DFFA90E0002051494F
:104200000870FFF7C9FA8AE04F48D0E9002110464C
:1042100005F09CFC83E04C490889FCF788FA0446C9
:1042200005F0BEFB7BE0FFF7DDFC78E0FFF7D0FC9C
:1042300075E0464903C905F0AFFA70E02120414915
:10424000087008460178424800F05FFA67E067E0CE
:1042500042203C490870084601783D4800F055FA74
:104260005DE064203749087008460178384800F05E
:104270004CFA54E052E033480078212190FBF1F4ED
:10428000204605F0D9FA4AE02E48007830B12128BE
:1042900005D042280ED064281AD116E018E042203A
:1042A0002849087008460178294800F02EFA05F0E0
:1042B000FFFA0DE06420234908700846017824487D
:1042C00000F023FA05F0F4FA02E005F019FB00BF54
:1042D00000BF24E01B480078212804D0422805D0E4
:1042E000642819D10DE005F033FB15E021201549B4
:1042F000087008460178164800F007FA05F0D8FA69
:104300000AE042200F49087008460178104800F082
:10431000FCF905F0CDFA00BF00BF00E000BF02E0ED
:104320000CA000F0A1FDFFF79BFE70BD7C040020F7
:1043300025303258200000000D0A000070040020D3
:104340005401002001010020C804002008010020C1
:10435000000800405355303354B5C4D6A1CDB7D66C
:10436000A1CEB2B4EDCEF30D0A00000010B500F0FE
:1043700001F810BD0CB50020019000903348006892
:1043800040F480303149086000BF3048006800F4D4
:10439000003000900198401C0190009818B90198D5
:1043A000B0F5A06FF1D12948006800F4003010B1D9
:1043B0000120009001E0002000900098012843D1E6
:1043C0002348006840F01000214908600846006852
:1043D00020F0030008600846006840F00200086012
:1043E0001A484068194948600846406848600846CD
:1043F000406840F4806048600846406820F47C10C3
:1044000048600846406840F4E81048600846006884
:1044100040F08070086000BF0C48006800F0007039
:104420000028F9D00948406820F003000749486097
:104430000846406840F00200486000BF03484068FA
:1044400000F00C000828F9D10CBD0000001002405B
:104450000020024010B500BFBF2080F31188BFF3D9
:104460004F8FBFF36F8F00BF23F04AFC18B14FF09E
:1044700080500449086000BF002080F3118800BF0D
:1044800010BD000004ED00E010B51348006840F0D6
:1044900001001149086008464068104908400E496B
:1044A0004860084600680E4908400B490860084605
:1044B000006820F4802008600846406820F4FE0070
:1044C00048604FF41F008860FFF750FF4FF0006016
:1044D0000449086010BD0000001002400000FFF811
:1044E000FFFFF6FE08ED00E010B50121054800F0E1
:1044F00098F828B1FEF77EFC0121024800F082F80E
:1045000010BD0000001000401FB501212020FFF762
:1045100071FA01A800F04EF942F20F70ADF80800F0
:1045200043F63F00ADF804000020ADF80A00ADF8F6
:10453000060001A90D4800F0EBF8012211460B48D6
:1045400000F080F837208DF8000001208DF8010080
:1045500000208DF8020001208DF803006846FFF767
:1045600043F90121014800F050F81FBD001400403C
:1045700010B50121164800F054F838B315480088EA
:1045800000F57A70134908801348008800F57A70A6
:1045900011490880114800686430104908600846D5
:1045A00000684968884204D300200C4908600C491F
:1045B0000870FFF779FB0B4908600846FCF7A4F97F
:1045C000094908600121024800F01CF810BD0000F4
:1045D00000140040CE000020D2000020D8000020AF
:1045E0005F010020500100205401002021B1028809
:1045F00042F08002028004E002884FF67F731A4086
:1046000002807047CA430282704721B1028842F09B
:104610000102028004E002884FF6FE731A40028015
:10462000704730B50246002000230024158A05EAB1
:104630000103958905EA010413B10CB1012000E0E2
:10464000002030BD1AB183890B43838102E0838946
:104650008B4383817047000070B500240022002343
:10466000058C4FF6FF6635400584028C8388848B69
:104670004FF68F752C404FF6FC752C400D882C435F
:104680004FF6FF552A400D894FF6FF7606EA0525BD
:104690002A434D8806EA05252A43154DA84202D033
:1046A000144DA8421DD14FF2FF752A404D894FF697
:1046B000FF7606EA05252A434FF6FF352A408D8806
:1046C00006EA05252A434EF6FF752B404DF6FF7589
:1046D0002B408D8906EA05152B43CD8906EA051581
:1046E0002B4383808483CD888587028470BD00003E
:1046F000002C0140003401400A460021818B4FF616
:10470000F773194011438183704781877047000018
:10471000002202881D4B98420ED01D4B98420BD0B0
:10472000B0F1804F08D01B4B984205D01A4B9842ED
:1047300002D01A4B984204D14FF68F731A404B881F
:104740001A43174B984207D0164B984204D04FF6A5
:10475000FF431A40CB881A4302808B8883850B88DD
:1047600003850A4B98420BD0094B984208D00E4B58
:10477000984205D00D4B984202D00D4B984201D182
:104780000B7A03860123838270470000002C0140CE
:10479000003401400004004000080040000C0040CC
:1047A000001000400014004000400140004401405F
:1047B000004801404FF6FF71818000210180C180D7
:1047C000418001727047000010B5FFF7C7FA064834
:1047D000FBF748FD0549086008460068FFF7A0FAA6
:1047E000FFF7BCFA10BD0000200100204C010020A2
:1047F00010B5FFF7B3FA03480068FFF791FAFFF727
:10480000ADFA10BD4C01002010B53648806940F06B
:104810000400344988613448006820F47F603249DC
:1048200008600846006840F0A0000860084600687C
:1048300040F4806008602B48806940F4804029493A
:1048400088612A48008840F40050284908800846BA
:10485000008820F4805008800846008820F480609A
:104860000880081D008820F44050091D088040F28F
:1048700071201E49091F0880081D008840F00800AB
:10488000091D08800846008840F00400088008469A
:10489000008840F0200008800846008840F01000A2
:1048A000088025200621002804DB0A07130E104A81
:1048B000135406E00A07140E0E4A00F00F031B1FE4
:1048C000D45400BF2520002809DB00F01F0201217D
:1048D00091404209920002F1E022C2F8001100BFAB
:1048E00010BD000000100240040801400C380140D7
:1048F00000E400E018ED00E030B504460D4600236A
:1049000004E0E05C00F006F8581C83B2AB42F8DB30
:1049100030BD000000BF0849098801F040010029AE
:10492000F9D00549091D0880091F098821F04001B7
:10493000014A1180704700000038014010B540F274
:104940002551174800F03DF9012816D1144800F010
:10495000F3F9C4B2134890F8491090F84900401C8C
:10496000104A82F849001046445490F849003C2807
:1049700003DB0020114681F8490040F22441084839
:1049800000F01FF901280AD1002201210648006821
:1049900022F036FE024800F0CFF9C4B200BF10BDCD
:1049A000004C00407C0400205000002070B50446FC
:1049B0000D46002605E014F8010B00F005F8701C08
:1049C00086B2AE42F7DB70BD10B5044600BF402191
:1049D000044800F0E9F80028F9D02146014800F029
:1049E000B0F910BD004C004010B540F225512B48E5
:1049F00000F0E7F8012820D1284800F09DF9284967
:104A0000087008460178274802780078401C254B3A
:104A100018702548815425480068401C23490860C7
:104A200001202349087000202249087018460078A8
:104A3000082802D30020194608701848008800F0A2
:104A40002000C8B1154800F077F91B4908700846E6
:104A500001781A4800F075F9174801781848027A69
:104A6000007A401C164B187218468154007A0828A8
:104A700002D30020194608720848008800F0100090
:104A800050B101200E4948720448001D00880A49AF
:104A9000087008460078087010BD0000003801401A
:104AA00000010020FE000020F6000020640100202C
:104AB0006801002069010020FF000020004800403C
:104AC0005804002010B540F22551154800F079F83F
:104AD000012811D1124800F02FF9C4B21148017A0F
:104AE000007A401C0F4A107210464454007A08287D
:104AF00002DB00201146087240F22441084800F011
:104B000060F801280BD100231A46064906480068C0
:104B100022F01AFF024800F00FF9C4B200BF10BD26
:104B200000440040640400204400002010B540F21E
:104B30002551144800F045F8012812D1114800F021
:104B4000FBF8C4B22146104800F0FBF80F48B0F85B
:104B50005213B0F85203401C0C4AA2F852031046FC
:104B6000445440F22441074800F02BF8012807D1B3
:104B7000064981F85403034800F0DEF8C4B200BFD0
:104B800010BD00000048004000380140E60400204D
:104B900021B1828942F40052828104E082894DF67B
:104BA000FF731A408281704702460020B1F5007FF2
:104BB00000D100BF13880B400BB1012000E00020A2
:104BC000704770B50246002400230025002040F6FF
:104BD0006A16B14200D100BFC1F3421501F01F03B4
:104BE000012606FA03F3012D02D19689334006E02F
:104BF000022D02D1168A334001E0968A33400C120E
:104C0000012606FA04F41688344013B10CB10120D1
:104C100000E0002070BDF0B503460024002600250A
:104C2000002040F66A17B94200D100BF1846C1F310
:104C3000421401F01F06012707FA06F5012C01D1E5
:104C40000C3004E0022C01D1103000E014301AB115
:104C500007682F43076002E00768AF430760F0BDB5
:104C60002DE9F04786B005460E460024A24600BF57
:104C7000A1460027B08900B100BF2F462C8A4CF610
:104C8000FF700440F08804432C82AC894EF6F31088
:104C90000440B08831890843718908430443AC81DA
:104CA000AC8A4FF6FF400440B0890443AC8201A8AF
:104CB000FEF7C6FE1F48874202D1DDF810A001E0D2
:104CC000DDF80CA0A88900F4004040B10AEBCA004E
:104CD00000EB0A1031684900B0FBF1F807E00AEB7D
:104CE000CA0000EB0A1031688900B0FBF1F86420BB
:104CF000B8FBF0F004012009642101FB1089A889A8
:104D000000F4004040B1322000EBC900B0FBF1F0EC
:104D100000F00700044308E0322000EB0910642192
:104D2000B0FBF1F000F00F0004432C8106B0BDE8A9
:104D3000F08700000038014001468888C0F3080071
:104D40007047C1F308028280704700BFFEE7000091
:104D500008B54FF480511448FDF75CFB9020FFF735
:104D600063F90020FFF760F90020FFF75DF90020EC
:104D7000FFF75AF9002000905F20FFF755F98DF8F2
:104D800000005F20FFF750F98DF801004FF48051CB
:104D90000548FDF741FB9DF801209DF8001003A098
:104DA00000F062F808BD0000000C0140CAD5B5BD96
:104DB00030783930B7B5BBD8B5C4CAFDBEDD2025C3
:104DC000782025780D0A000010B5044600F03AF866
:104DD0004FF480510C48FDF71DFB2020FFF724F90C
:104DE000C4F30740FFF720F9C4F30720FFF71CF9CD
:104DF000E0B2FFF719F94FF480510348FDF70CFBBF
:104E000000F004F810BD0000000C014010B50024B3
:104E10004FF480510A48FDF7FDFA0520FFF704F929
:104E200000BFA520FFF700F9044604F001000028A8
:104E3000F7D14FF480510248FDF7EEFA10BD0000A3
:104E4000000C014010B54FF480510648FDF7E2FA1E
:104E50000620FFF7E9F84FF480510248FDF7DCFA2D
:104E600010BD0000000C01400FB4054B10B503A9A4
:104E7000044A029804F068F810BC5DF814FB0000C6
:104E8000C10B0108500400200FB4084B10B504A951
:104E900002AA039804F058F8044602A9002004F07E
:104EA000EAFB204610BC5DF814FB00007796000872
:104EB000014B024A04F048B8C10B0108500400201D
:104EC000004870475404002002E008C8121F08C1BF
:104ED000002AFAD170477047002001E001C1121F7B
:104EE000002AFBD1704700002DE9F04782460C46AE
:104EF00018484088A04203D316480088A04202D92F
:104F00000020BDE8F08713480088201A082101EB33
:104F100080060421304600F057F805462868B8B1ED
:104F20002F680621384600F04FF8804698F80100B7
:104F300098F8021048430749097900FB01F94FEA44
:104F4000E97009EB5070C110B81D00F03DF8D8E7CA
:104F50000020D6E7F80100202DE9F04781460C46F5
:104F600016469A4617484088B04203D31548008831
:104F7000B04202D90020BDE8F08712480088301AFC
:104F8000082101EB80080421404600F01DF8074687
:104F90003868A8B10621386800F016F80546287868
:104FA0002080A878A0806878608095F90300E08070
:104FB00095F90400208103480079A0720120DAE706
:104FC0000020D8E7F801002070B504460D46AAB2CB
:104FD00004F51C3102481BF027FE014870BD00009B
:104FE0000451002070B50446002508E02168481CE3
:104FF00020600878303805EB850100EB4105216819
:10500000087800F064FC0028F0D1284670BD00004C
:105010002DE9FF4F9FB09046DDE92D59309F2C9C24
:1050200022462B4620462946FBF7DAFB10D14FF0EB
:10503000FF32DF4B20462946FBF7EAFB08D34FF04F
:10504000FF326FF4801320462946FBF7C9FB0DD2CF
:105050002F988DE83002CDE903074246229BDDE917
:105060001F0100F097FA23B0BDE8F08F002213462D
:1050700020462946FBF7B4FB01D2012000E00020C6
:105080001E901E9808B185F0004507F4806008B9AD
:105090004FF00609CDE91C4540F2FF711D9801EA69
:1050A0001050A0F2FF301B90C24BDDE91C101840DD
:1050B000C14A1043CDE91C10DDE91C010022BF4BA1
:1050C000CDE90A01FBF73BFABD4ABE4BCDE90C0125
:1050D000FBF73BFACDE910011B98FBF717FBBA4A27
:1050E000BA4BCDE90A01FBF730FAB94AB94BCDE921
:1050F0000C01FBF783F9CDE90E01DDE91023FBF785
:105100007DF9CDE91201FBF71FFB06463046FBF7A0
:10511000FDFAB14AB14BCDE90E01FBF716FA0022B8
:10512000AF4BCDE91001FBF769F9CDE91201FBF7AF
:105130000BFB1B901B98FBF7E9FAAA4AAA4BCDE997
:105140000E01FBF702FACDE912013046FBF7DEFA59
:10515000A64AA74BCDE90E01FBF7F7F9CDE91001FF
:10516000DDE91223FBF7EBF982468B4652465B469C
:1051700050465946FBF7E9F9CDE918011B9800F2B2
:10518000FF3000050021CDE91C100022994BDDE91C
:105190001801FBF74CFA0022974BCDE90001FBF711
:1051A0002DF902460B46CDE90201DDE91801FBF7B6
:1051B0003EFA0022914BCDE90401FBF71FF90246AC
:1051C0000B46CDE90601DDE91801FBF730FA52463E
:1051D0005B46CDE90A0100204FF08041FBF7AFF9B3
:1051E000CDE90801DDE90A23FBF708F952465B46E1
:1051F000CDE90E0100204FF08041FBF7A6F9CDE983
:105200000C01DDE90E23FBF712FA00226A4BCDE90F
:105210001001FBF7F3F8CDE91201DDE91C01CDE93E
:105220001001DDE91223FBF790F9CDE91C01DDE95E
:105230001C0102460B46CDE9120120462946FBF728
:10524000CFFA0AD2761EDDE91C0100226A4BCDE9B5
:105250001201FBF7ECF9CDE91C01642E04DA16F11A
:10526000640F01DD042000E00520179007F40060C2
:1052700020B3634A634B20462946FBF7C9FA15D889
:105280000022614B20462946FBF7AAFA0ED2B1450F
:1052900004DDA9EB0600A0F1010901E04FF00009CF
:1052A00047F4806700201790002607E0B9F1000F4F
:1052B00004D007F4806008B1A9F101092F98169075
:1052C00017992F98884204D9DDE91601401A1690E3
:1052D00001E00020169007F0020018B1179808B1FD
:1052E000002016905EB1DDE91C0102460B46CDE9B7
:1052F000120120462946FBF79AF904460D46CDF8DF
:1053000054801E9818B1204685F0004101E02046E7
:105310002946CDE9120127F400601699CDE90291E2
:105320000490DDE91201CDE900014246229BDDE94E
:105330001F0100F02FF980461798B8B3424608F1D4
:10534000010807F0200109B1452100E06521084668
:10535000DDE91FC1229BE04705211798401E00226E
:105360000A23CDE90232CDE90401F00F002E01DA63
:10537000714200E03146CDE900104246229BDDE952
:105380001F0103F008FD804607F0020070B107E03E
:10539000424608F101082020DDE91FC1229BE047B9
:1053A0001598A8EB00012F988142F1D340465AE6A8
:1053B000FFFFEF7FFFFF0F000000F03F0000F83F0E
:1053C00061436F63A787D23FFB799F501344D33F5C
:1053D000B3C8608B288AC63F71A379094F930A40EE
:1053E0000000E03FEF39FAFE422EE63F1655B5BB0E
:1053F000B16B024000002C40000024400000184027
:105400002D431CEBE2361A3F80842E41704700008A
:105410002DE9FF5F82B00021DDE90430020DDDF8E7
:1054200040B0034318D044F61050A2F2FF3242437A
:105430001514119801281FD0A5EB0B00401C5FEA42
:10544000000A4FF000064E4FDFF83891B046504644
:1054500015D5CAF1000413E0119801244AA30128CC
:1054600001D16FEA0B010298119AC0E90031C0E93D
:10547000024206B0BDE8F09FCBF10000DFE7044632
:105480000021404A491842EB0450CDE9001012E0D7
:10549000E00707D032463B4640464946FBF755F801
:1054A0008046894632463B4610461946FBF74DF882
:1054B00006460F466410002CEAD1DDE90401DDE95F
:1054C0000023BAF1000F06DAFBF73FF842464B46DD
:1054D000FBF73BF805E0FBF7AAF842464B46FBF723
:1054E000A6F804460E460022284BFBF791F903D894
:1054F0004FF0FF30014607E00022254B20463146A1
:10550000FAF77CFFFBF718FB102409E0002C0ADBFC
:105510000A220023FAF774FE039B30321A55641EE8
:1055200050EA0102F2D1641C039AC4F1110314443D
:10553000119A012A03D0012208430DD10AE0084341
:1055400004D000204FF0110B119072E7A3EB0B0574
:105550006D1E0DE05B4504DD4FF0000205F1010515
:1055600004E003DA4FF00002A5F10105002AECD0B7
:1055700002981199C0E90231C0E9004579E70000BD
:10558000000014400000F03F300000000000F04335
:105590000000E03F2DE9FF4F95B0DDE924A8DDE9EB
:1055A0002267269D002400BF32463B4630463946DE
:1055B000FBF716F90CD00320B9A1CDE90285CDE99E
:1055C000001015A80FC803F085FC19B0BDE8F08FD6
:1055D0004FF0FF326FF4801330463946FBF700F985
:1055E0000AD20420AFA1CDE90285CDE9001015A8AB
:1055F0000FC803F06FFCE8E74FF0FF32AB4B3046CB
:105600003946FBF705F913D205F0040008B104216F
:1056100000E0032105F0040008B1A5A000E0A6A069
:105620008DE80301039515A80FC803F053FCCCE7E0
:105630000022A24B30463946FBF7EAF806D3002297
:105640009F4B30463946FBF7CBF808D28DE8C004B3
:10565000CDE9038515A80FC8FFF7DAFCB5E70020F0
:1056600009900022134630463946FBF7B9F809D2B3
:105670000120099032463B4600200146FAF75FFFC1
:1056800006460F4605F4806008B94FF0060A06E0AA
:1056900030222046641C0CA90A54AAF1010A202CCD
:1056A00002D2BAF1090FF3D830463946FBF74CF86D
:1056B00083465846FBF72AF832463B46CDE90201BD
:1056C000FAF740FFCDE904017E4800EBCA0003C8A9
:1056D000CDE90201DDE90423FAF737FFCDE9060140
:1056E000DDE90601FBF74FF881464846FBF71FF856
:1056F000CDE90401DDE90623FAF724FFCDE90A012B
:105700000022714BDDE90A01FBF782F818D209F19A
:1057100001094846FBF70BF8CDE90401694800EBA5
:10572000CA0103C902460B46CDE90201DDE90401C5
:10573000FBF76EF813D84FF000090BF1010B0EE0E8
:105740000022614BDDE90A01FBF74AF807D3B9F102
:10575000000F02D009F0010008B109F10109BAF106
:10576000000F1ED15846FAF7D1FF32463B46CDE92D
:105770000401FAF7E7FECDE90A010022524BDDE908
:105780000A01FBF72DF806D200224F4BDDE90A0192
:10579000FBF73EF830D20BF0010068B30BF1010BC0
:1057A0002AE0504611E0401E0A21B9FBF1F201FB4C
:1057B000129130312246641C0CAB99540A21B9FB7A
:1057C000F1F1B1F1000900D101E0202CEBD300BFD1
:1057D00004E030232146641C0CAA5354202C03D22D
:1057E000011EA0F10100F4D1202C04D22E23224668
:1057F000641C0CA98B5400BF11E00A209BFBF0F144
:1058000000FB11B03030C2B22046641C0CA90A540F
:105810000A209BFBF0F0B0F1000B00D101E0202C3E
:10582000EBD300BF05F00200B0B905F0010098B15C
:10583000B8F1000F06D0099810B905F00C0008B1B6
:10584000A8F1010804E030222046641C0CA90A5487
:10585000444501D2202CF6D3202C18D2099828B127
:105860002D222046641C0CA90A5410E005F0040007
:1058700028B12B222046641C0CA90A5407E005F02D
:10588000080020B120222046641C0CA90A540CA850
:105890008DE81101039515A80FC803F01BFB94E6D2
:1058A0006E616E00666E692D00000000FFFFEF7FE5
:1058B000666E692B00000000666E690065CDCD4103
:1058C00065CDCDC1B0B802080000E03F7047014689
:1058D000302903DB392901DC012070470020FCE777
:1058E00010B54021084801F010FC002304221E21BD
:1058F000064818F047FB0649086004F0D3FC002076
:105900000449087010BD0000F06C002091A300084D
:105910008C020020880200202DE9F04705460F4642
:1059200016461C46152E30D2DFE806F00B303449FF
:105930005765839AAFCDD6F9F7F6F5F4F3F2F1F0A7
:10594000EF0028460DF04DF9814600EBD9704FEA83
:10595000600A38460DF045F9804600EBD870AAEB96
:10596000600000B2208028460DF0E4F8814600EB8C
:10597000D9704FEA600A38460DF0DCF8804600EB3B
:10598000D870AAEB600000B260806AE1002020803D
:10599000608066E128460DF024F9814600EBD9705D
:1059A0004FEA600A38460DF01CF9804600EBD870CB
:1059B000AAEB600000B220800020608051E1284600
:1059C0000DF00FF9804638460DF00BF9A8EB0000FA
:1059D00000B220800020608043E100202080284623
:1059E0000DF0A8F8804638460DF0A4F8A8EB0000AA
:1059F00000B2608035E128460DF0F3F8814600EBF7
:105A0000D9704FEA600A38460DF0EBF8804600EB9B
:105A1000D870AAEB600000B2208028460DF08AF80A
:105A2000804638460DF086F8A8EB000000B2608092
:105A300017E128460DF0D5F8804638460DF0D1F82C
:105A4000A8EB000000B2208028460DF073F88046D5
:105A500038460DF06FF8A8EB000000B2608000E15E
:105A60000020208028460DF065F8814600EBD970B3
:105A70004FEA600A38460DF05DF8804600EBD870BA
:105A8000AAEB600000B26080EBE028460DF0A9F8B8
:105A9000804638460DF0A5F8A8EB000000B2208043
:105AA00028460DF047F8814600EBD9704FEA600AAE
:105AB00038460DF03FF8804600EBD870AAEB600046
:105AC00000B26080CDE00020208038460DF032F832
:105AD000404200B26080C4E028460DF082F8814662
